{
  "abi": [
    {
      "inputs": [
        {
          "internalType": "address",
          "name": "perOperatorAddress",
          "type": "address"
        },
        {
          "internalType": "uint256",
          "name": "defaultFee",
          "type": "uint256"
        }
      ],
      "stateMutability": "nonpayable",
      "type": "constructor"
    },
    {
      "anonymous": false,
      "inputs": [
        {
          "indexed": false,
          "internalType": "address",
          "name": "sender",
          "type": "address"
        },
        {
          "indexed": false,
          "internalType": "uint256",
          "name": "amount",
          "type": "uint256"
        }
      ],
      "name": "ReceivedETH",
      "type": "event"
    },
    {
      "inputs": [
        {
          "internalType": "address",
          "name": "contractAddress",
          "type": "address"
        },
        {
          "internalType": "bytes",
          "name": "data",
          "type": "bytes"
        },
        {
          "internalType": "uint256",
          "name": "bid",
          "type": "uint256"
        }
      ],
      "name": "callWithBid",
      "outputs": [
        {
          "internalType": "bool",
          "name": "",
          "type": "bool"
        },
        {
          "internalType": "bytes",
          "name": "",
          "type": "bytes"
        }
      ],
      "stateMutability": "payable",
      "type": "function"
    },
    {
      "inputs": [],
      "name": "getPEROperator",
      "outputs": [
        {
          "internalType": "address",
          "name": "",
          "type": "address"
        }
      ],
      "stateMutability": "view",
      "type": "function"
    },
    {
      "inputs": [
        {
          "internalType": "address",
          "name": "profitReceiver",
          "type": "address"
        },
        {
          "internalType": "bytes",
          "name": "message",
          "type": "bytes"
        }
      ],
      "name": "isPermissioned",
      "outputs": [
        {
          "internalType": "bool",
          "name": "permissioned",
          "type": "bool"
        }
      ],
      "stateMutability": "view",
      "type": "function"
    },
    {
      "inputs": [
        {
          "internalType": "bytes",
          "name": "permission",
          "type": "bytes"
        },
        {
          "internalType": "address[]",
          "name": "contracts",
          "type": "address[]"
        },
        {
          "internalType": "bytes[]",
          "name": "data",
          "type": "bytes[]"
        },
        {
          "internalType": "uint256[]",
          "name": "bids",
          "type": "uint256[]"
        }
      ],
      "name": "multicall",
      "outputs": [
        {
          "components": [
            {
              "internalType": "bool",
              "name": "externalSuccess",
              "type": "bool"
            },
            {
              "internalType": "bytes",
              "name": "externalResult",
              "type": "bytes"
            },
            {
              "internalType": "string",
              "name": "multicallRevertReason",
              "type": "string"
            }
          ],
          "internalType": "struct MulticallStatus[]",
          "name": "multicallStatuses",
          "type": "tuple[]"
        }
      ],
      "stateMutability": "payable",
      "type": "function"
    },
    {
      "inputs": [
        {
          "internalType": "address",
          "name": "feeRecipient",
          "type": "address"
        },
        {
          "internalType": "uint256",
          "name": "feeSplit",
          "type": "uint256"
        }
      ],
      "name": "setFee",
      "outputs": [],
      "stateMutability": "nonpayable",
      "type": "function"
    },
    {
      "stateMutability": "payable",
      "type": "receive"
    }
  ],
  "bytecode": {
    "object": "0x60803461007c57601f610cc538819003918201601f19168301916001600160401b0383118484101761008157808492604094855283398101031261007c5780516001600160a01b038116919082900361007c5760200151600080546001600160a01b031916909217909155600355604051610c2d90816100988239f35b600080fd5b634e487b7160e01b600052604160045260246000fdfe608080604052600436101561004c575b50361561001b57600080fd5b7f4103257eaac983ca79a70d28f90dfc4fa16b619bb0c17ee7cab0d4034c27962460408051338152346020820152a1005b600090813560e01c9081633242d9c91461096557508063403e96f6146108d1578063696e129014610249578063b9a0937f1461011f5763e55156b50361000f573461011c57604036600319011261011c576100a5610989565b81546001600160a01b039190821633036100cc571681526001602052602435604082205580f35b60405162461bcd60e51b815260206004820152602260248201527f6f6e6c7920504552206f70657261746f722063616e2073657420746865206665604482015261657360f01b6064820152608490fd5b80fd5b50606036600319011261011c57610134610989565b906024356001600160401b0381116102455781610156819236906004016109a4565b829591954796826040519384928337810182815203925af1903d1561023c573d9261018084610aa1565b9361018e6040519586610a6a565b8452823d83602087013e5b6101c2575b50506101be60405192839215158352604060208401526040830190610a24565b0390f35b47918183039083821161022857506044351115918261021d575b5050156101ea57388061019e565b60405162461bcd60e51b815260206004820152600b60248201526a1a5b9d985b1a5908189a5960aa1b6044820152606490fd5b1015905038806101dc565b634e487b7160e01b81526011600452602490fd5b60609282610199565b5080fd5b50608036600319011261011c576004356001600160401b038111610245576102759036906004016109a4565b906024356001600160401b0381116108cd576102959036906004016109d1565b92906044356001600160401b0381116108c9576102b69036906004016109d1565b906064356001600160401b03811161059e576102d69036906004016109d1565b88549092906001600160a01b03163303610873576014861061081a579693929190610302368789610abc565b602081519101208952600260205260408920600160ff1982541617905561032883610af3565b97610336604051998a610a6a565b83895261034284610af3565b8a5b601f19820181106107b557505089958a955b8587106105a6575050505050505061036f368385610abc565b90815182016040838203126105a25760208301516001600160a01b038116939084900361059e576040810151916001600160401b03831161059a576103bb926020809201920101610b30565b5081865260016020526040862054908115610590575b81810291818304149015171561057c578086916104a6575b505050906103fb919392933691610abc565b60208151910120815260026020526040812060ff1981541690556040519182916020830160208452825180915260408401602060408360051b870101940192905b82821061044b57505050500390f35b919360019193955060206104968192603f198a82030186528851906040610485606084511515845286850151908088860152840190610a24565b920151906040818403910152610a24565b960192019201859493919261043c565b670de0b6b3a76400009004823b63ffffffff161561054857823b156102455760405163fced708160e01b8152602060048201529283918290816104ed60248201898b610a49565b03925af1801561053d5761050c575b50906103fb915b909184386103e9565b6001600160401b03819592951161052957604052926103fb6104fc565b634e487b7160e01b82526041600452602482fd5b6040513d87823e3d90fd5b818093918192829796978215610573575bf115610568576103fb91610503565b6040513d85823e3d90fd5b506108fc610559565b634e487b7160e01b86526011600452602486fd5b60035491506103d1565b8880fd5b8780fd5b8680fd5b909192939495966105b8888484610b0a565b356001600160a01b03811681036107b1578860051b85013590601e19863603018212156107ad576001600160401b0382870135116107ad578d8287013536036020848901011361011c578a818f939461065595610616848e8e610b0a565b60405163b9a0937f60e01b81526001600160a01b0390921660048301526060602483015290968792839235919060648401908e01803590602001610a49565b906044830152038183305af180948395610746575b50610722575050505060018c60033d11610712575b6308c379a0146106db575b6106d0575b61069a888787610b0a565b3581018091116106bc579660001981146106bc57600101959493929190610356565b634e487b7160e01b8c52601160045260248cfd5b6040513d8d823e3d90fd5b8b8d8a6106e6610b89565b91826106f6575b5050505061068a565b9350909160409161070691610b75565b5101528b388a8f6106ed565b5060048d803e8c5160e01c61067f565b8261073e9261073383602096610b75565b519015159052610b75565b51015261068f565b9350935050508d3d8091833e61075c8183610a6a565b60408282810103126107a95781519081151582036107a5576020830151906001600160401b0382116107a0578f938d926107999282019101610b30565b933861066a565b508f80fd5b8f80fd5b8e80fd5b8d80fd5b8c80fd5b604097929394959697518060608101106001600160401b036060830111176108065790816020828f8f9060608497016040528452606083850152606060408501520101520196959493929196610344565b634e487b7160e01b8d52604160045260248dfd5b60405162461bcd60e51b815260206004820152602b60248201527f7065726d697373696f6e2073697a652073686f756c64206265206174206c656160448201526a737420323020627974657360a81b6064820152608490fd5b60405162461bcd60e51b815260206004820152602860248201527f6f6e6c7920504552206f70657261746f722063616e2063616c6c207468697320604482015267333ab731ba34b7b760c11b6064820152608490fd5b8580fd5b8380fd5b503461011c57604036600319011261011c576108eb610989565b6024356001600160401b0381116109615760209260ff9261094b61091560409436906004016109a4565b61093d86939293519384928a84019660018060a01b0316875288808501526060840191610a49565b03601f198101835282610a6a565b5190208152600284522054166040519015158152f35b8280fd5b90503461024557816003193601126102455790546001600160a01b03168152602090f35b600435906001600160a01b038216820361099f57565b600080fd5b9181601f8401121561099f578235916001600160401b03831161099f576020838186019501011161099f57565b9181601f8401121561099f578235916001600160401b03831161099f576020808501948460051b01011161099f57565b60005b838110610a145750506000910152565b8181015183820152602001610a04565b90602091610a3d81518092818552858086019101610a01565b601f01601f1916010190565b908060209392818452848401376000828201840152601f01601f1916010190565b90601f801991011681019081106001600160401b03821117610a8b57604052565b634e487b7160e01b600052604160045260246000fd5b6001600160401b038111610a8b57601f01601f191660200190565b929192610ac882610aa1565b91610ad66040519384610a6a565b82948184528183011161099f578281602093846000960137010152565b6001600160401b038111610a8b5760051b60200190565b9190811015610b1a5760051b0190565b634e487b7160e01b600052603260045260246000fd5b81601f8201121561099f578051610b4681610aa1565b92610b546040519485610a6a565b8184526020828401011161099f57610b729160208085019101610a01565b90565b8051821015610b1a5760209160051b010190565b600060443d10610b7257604051600319913d83016004833e81516001600160401b03918282113d602484011117610be657818401948551938411610bee573d85010160208487010111610be65750610b7292910160200190610a6a565b949350505050565b5094935050505056fea26469706673582212202f41143ce33f1092805e7edeaf66f8c392d4bde9a45c75d9746e9927894872af64736f6c63430008150033",
    "linkReferences": {}
  },
  "methodIdentifiers": {
    "callWithBid(address,bytes,uint256)": "b9a0937f",
    "getPEROperator()": "3242d9c9",
    "isPermissioned(address,bytes)": "403e96f6",
    "multicall(bytes,address[],bytes[],uint256[])": "696e1290",
    "setFee(address,uint256)": "e55156b5"
  },
  "id": 37
}