{"abi":[{"type":"constructor","inputs":[],"stateMutability":"nonpayable"},{"type":"receive","stateMutability":"payable"},{"type":"function","name":"WITNESS_TYPE_STRING","inputs":[],"outputs":[{"name":"","type":"string","internalType":"string"}],"stateMutability":"view"},{"type":"function","name":"executeOpportunity","inputs":[{"name":"params","type":"tuple","internalType":"struct ExecutionParams","components":[{"name":"permit","type":"tuple","internalType":"struct ISignatureTransfer.PermitBatchTransferFrom","components":[{"name":"permitted","type":"tuple[]","internalType":"struct ISignatureTransfer.TokenPermissions[]","components":[{"name":"token","type":"address","internalType":"address"},{"name":"amount","type":"uint256","internalType":"uint256"}]},{"name":"nonce","type":"uint256","internalType":"uint256"},{"name":"deadline","type":"uint256","internalType":"uint256"}]},{"name":"witness","type":"tuple","internalType":"struct ExecutionWitness","components":[{"name":"buyTokens","type":"tuple[]","internalType":"struct TokenAmount[]","components":[{"name":"token","type":"address","internalType":"address"},{"name":"amount","type":"uint256","internalType":"uint256"}]},{"name":"executor","type":"address","internalType":"address"},{"name":"targetContract","type":"address","internalType":"address"},{"name":"targetCalldata","type":"bytes","internalType":"bytes"},{"name":"targetCallValue","type":"uint256","internalType":"uint256"},{"name":"bidAmount","type":"uint256","internalType":"uint256"}]}]},{"name":"signature","type":"bytes","internalType":"bytes"}],"outputs":[],"stateMutability":"payable"},{"type":"function","name":"getExpressRelay","inputs":[],"outputs":[{"name":"","type":"address","internalType":"address"}],"stateMutability":"view"},{"type":"function","name":"getOwner","inputs":[],"outputs":[{"name":"","type":"address","internalType":"address"}],"stateMutability":"view"},{"type":"function","name":"getWeth","inputs":[],"outputs":[{"name":"","type":"address","internalType":"address"}],"stateMutability":"view"},{"type":"function","name":"hash","inputs":[{"name":"params","type":"tuple","internalType":"struct ExecutionWitness","components":[{"name":"buyTokens","type":"tuple[]","internalType":"struct TokenAmount[]","components":[{"name":"token","type":"address","internalType":"address"},{"name":"amount","type":"uint256","internalType":"uint256"}]},{"name":"executor","type":"address","internalType":"address"},{"name":"targetContract","type":"address","internalType":"address"},{"name":"targetCalldata","type":"bytes","internalType":"bytes"},{"name":"targetCallValue","type":"uint256","internalType":"uint256"},{"name":"bidAmount","type":"uint256","internalType":"uint256"}]}],"outputs":[{"name":"","type":"bytes32","internalType":"bytes32"}],"stateMutability":"pure"},{"type":"function","name":"version","inputs":[],"outputs":[{"name":"","type":"string","internalType":"string"}],"stateMutability":"pure"},{"type":"function","name":"withdrawEth","inputs":[],"outputs":[],"stateMutability":"nonpayable"},{"type":"function","name":"withdrawToken","inputs":[{"name":"token","type":"address","internalType":"address"}],"outputs":[],"stateMutability":"nonpayable"},{"type":"error","name":"AdapterOwnerMismatch","inputs":[]},{"type":"error","name":"AddressEmptyCode","inputs":[{"name":"target","type":"address","internalType":"address"}]},{"type":"error","name":"AddressInsufficientBalance","inputs":[{"name":"account","type":"address","internalType":"address"}]},{"type":"error","name":"DuplicateToken","inputs":[]},{"type":"error","name":"EthOrWethBalanceDecreased","inputs":[]},{"type":"error","name":"FailedInnerCall","inputs":[]},{"type":"error","name":"InsufficientEthToSettleBid","inputs":[]},{"type":"error","name":"InsufficientTokenReceived","inputs":[]},{"type":"error","name":"InsufficientWethForTargetCallValue","inputs":[]},{"type":"error","name":"NotCalledByFactory","inputs":[]},{"type":"error","name":"OnlyOwnerCanCall","inputs":[]},{"type":"error","name":"ReentrancyGuardReentrantCall","inputs":[]},{"type":"error","name":"SafeERC20FailedOperation","inputs":[{"name":"token","type":"address","internalType":"address"}]},{"type":"error","name":"TargetCallFailed","inputs":[{"name":"returnData","type":"bytes","internalType":"bytes"}]},{"type":"error","name":"TargetContractNotAllowed","inputs":[]}],"bytecode":{"object":"0x61012080604052346200017257600060018155608091338352630890357360e41b81528281600481335afa908115620001675782918391848092620000c7575b505060a05261010092835260e05260c052604051906119f992836200018d843951826103a4015260a05182818160e3015281816101ae0152818161026901526103f7015260c051828181609e0152611591015260e051828181610c0f01528181610ec101528181611559015261169f0152518181816104360152818161070401526108570152f35b935093505050823d84116200015f575b601f8101601f191683016001600160401b038111848210176200014b578491849160405281010312620001485750620001108162000177565b906200011f6020820162000177565b906200013c6060620001346040840162000177565b920162000177565b9291909238806200003f565b80fd5b634e487b7160e01b83526041600452602483fd5b503d620000d7565b6040513d84823e3d90fd5b600080fd5b51906001600160a01b0382168203620001725756fe608080604052600436101561001d575b50361561001b57600080fd5b005b600090813560e01c908163107c279f14610ead57508063156e215214610e7d5780632608ba811461032557806354fd4d50146102db5780636184196a14610298578063893d20e8146102535780638947606914610184578063a0ef91df146100d05763c9b4518a0361000f57346100cd57806003193601126100cd576040517f00000000000000000000000000000000000000000000000000000000000000006001600160a01b03168152602090f35b80fd5b50346100cd57806003193601126100cd577f00000000000000000000000000000000000000000000000000000000000000006001600160a01b03163381900361017257818080809347905af16101246112a1565b501561012d5780f35b60405162461bcd60e51b815260206004820152601860248201527f5769746864726177616c206f6620455448206661696c656400000000000000006044820152606490fd5b6040516308f51d4b60e31b8152600490fd5b50346100cd5760203660031901126100cd576001600160a01b036004358181169081900361023b577f00000000000000000000000000000000000000000000000000000000000000009182163303610172576040516370a0823160e01b815230600482015291602083602481855afa91821561024857849261020e575b61020b93506112d1565b80f35b91506020833d8211610240575b8161022860209383610f53565b8101031261023b5761020b925191610201565b600080fd5b3d915061021b565b6040513d86823e3d90fd5b50346100cd57806003193601126100cd576040517f00000000000000000000000000000000000000000000000000000000000000006001600160a01b03168152602090f35b50346100cd5760203660031901126100cd57600435906001600160401b0382116100cd5760206102d36102ce366004860161115e565b611717565b604051908152f35b50346100cd57806003193601126100cd576103216040516102fb81610ef4565b60058152640302e322e360dc1b60208201526040519182916020835260208301906110f3565b0390f35b5060403660031901126100cd57600435906001600160401b0382116100cd57604060031983360301126100cd576001600160401b03602435116100cd573660236024350112156100cd576001600160401b0360243560040135116100cd5736602480356004013581350101116100cd576002815414610e6b57600281557f00000000000000000000000000000000000000000000000000000000000000006001600160a01b03163303610e59576103ed60206103e760248501856004016113fc565b0161145b565b6001600160a01b037f00000000000000000000000000000000000000000000000000000000000000008116911603610e475761043460406103e760248501856004016113fc565b7f00000000000000000000000000000000000000000000000000000000000000006001600160a01b039081169116148015610e21575b610e0f5761048d6104876104816004850180611446565b80611411565b906114a4565b6104a361048761048160248501856004016113fc565b6104ab611682565b6104c161048160248695949501866004016113fc565b6104ca81611133565b916104d86040519384610f53565b818352601f196104e783611133565b01366020850137845b828110610d6e57506105089150506004860180611446565b9161051960248701876004016113fc565b916105248480611411565b97905061054961053389611133565b986105416040519a8b610f53565b808a52611133565b865b601f1982018110610d4b575050855b6105648680611411565b90508110156106d957806020610587610653936105818a80611411565b9061147e565b0135816105ae6105a961059a8b80611411565b6001600160a01b03949161147e565b61145b565b168b6105cf84604051926105c184610ef4565b308452856020850152611539565b526105da838d611539565b506105e76040890161145b565b60405163095ea7b360e01b602082018181526001600160a01b038416602484015260448084019690965294825293909291908c908190610628606487610f53565b85519082865af16106376112a1565b816106aa575b50806106a0575b15610658575b5050505061146f565b61055a565b60405160208101949094526001600160a01b0316602484015260448084018c90528352610697926106929061068c81610f38565b82611327565b611327565b3880808061064a565b50813b1515610644565b80518015925082156106bf575b50503861063d565b6106d2925060208091830101910161130f565b38806106b7565b508686868a876106f96102ce6106f16020840161145b565b92369061115e565b610701610f8f565b917f00000000000000000000000000000000000000000000000000000000000000006001600160a01b03163b15610d475760405163fe8ec1a760e01b815260c060048201529480359036819003601e1901821215610d43576001600160401b038183013511610d43578082013560061b360360208284010113610d43579187959391879593606060c4880152610124870181830135905261014487019160208282010190895b838201358110610cfd57505050806020604092013560e4890152013561010487015260031986820301602487015260208086519283815201950190875b818110610ccc575050506001600160a01b031660448501526064840152828203600319016084840152602091839161081c91906110f3565b6003198282030160a4830152602480356004810135808452910184830137600460243501358181018401869052601f01601f191601030181837f00000000000000000000000000000000000000000000000000000000000000006001600160a01b03165af18015610cc157610cb2575b509060806108a060248501856004016113fc565b0135610c0d575b6108bc60406103e760248601866004016113fc565b6108cc60248501856004016113fc565b606081013590601e1981360301821215610c0957018035906001600160401b038211610c09576020018136038113610c0957918492918392608061091660248a018a6004016113fc565b013590826040519384928337810185815203925af16109336112a1565b9015610be057506109476004840180611446565b9461095d60406103e760248701876004016113fc565b93835b61096a8880611411565b9050811015610a6357806109eb916109886105a961059a8c80611411565b16604051602081019160008063095ea7b360e01b9485815260018060a01b038d166024860152816044860152604485526109c185610f38565b84519082855af16109d06112a1565b81610a34575b5080610a2a575b156109f0575b50505061146f565b610960565b610692610a229360405190602082015260018060a01b038c166024820152600060448201526044815261068c81610f38565b8980806109e3565b50803b15156109dd565b8051801592508215610a49575b50508d6109d6565b610a5c925060208091830101910161130f565b8d80610a41565b506103e786610a8460a0610a7d60248601866004016113fc565b013561154d565b610aac6020610a9c61048160248701876004016113fc565b94909560248101906004016113fc565b92865b838110610af457878787610ac1611682565b9211918215610aea575b5050610ad8576001815580f35b604051631979776d60e01b8152600490fd5b1090508280610acb565b6001600160a01b03610b0a6105a983878661147e565b6040516370a0823160e01b8152306004820152929116602083602481845afa928315610bd5578a93610ba1575b50610b428286611539565b516020610b5084898861147e565b01358101809111610b8b578310610b7957610b749287610b6f926112d1565b61146f565b610aaf565b604051632578a3d560e11b8152600490fd5b634e487b7160e01b600052601160045260246000fd5b9092506020813d602011610bcd575b81610bbd60209383610f53565b8101031261023b5751918a610b37565b3d9150610bb0565b6040513d8c823e3d90fd5b60405163549964bd60e11b815260206004820152908190610c059060248301906110f3565b0390fd5b8480fd5b7f00000000000000000000000000000000000000000000000000000000000000006001600160a01b03166080610c4960248601600487016113fc565b0135813b15610cae57838092602482936040519586938492632e1a7d4d60e01b845260048401525af19182610c96575b5050610c9157604051631794833560e21b8152600490fd5b6108a7565b610c9f90610f25565b610caa578287610c79565b8280fd5b8380fd5b610cbb90610f25565b8561088c565b6040513d84823e3d90fd5b825180516001600160a01b03168852602090810151818901528b99508a9850604090970196909201916001016107e4565b929496985092849195979950604080600192838060a01b03610d1e8a61114a565b1681526020890135602082015201960192018a98969450928b999795939291926107a7565b8780fd5b8580fd5b602090604051610d5a81610ef4565b898152898382015282828d0101520161054b565b60249060206001600160a01b03610d896105a984888861147e565b16604051938480926370a0823160e01b82523060048301525afa8015610e04578790610dca575b610dc59250610dbf8287611539565b5261146f565b6104f0565b50906020813d602011610dfc575b81610de560209383610f53565b81010312610df85790610dc59151610db0565b8680fd5b3d9150610dd8565b6040513d89823e3d90fd5b604051634e4372cf60e11b8152600490fd5b50610e3760406103e760248501856004016113fc565b6001600160a01b0316301461046a565b60405163446f3eeb60e01b8152600490fd5b604051632c090db360e21b8152600490fd5b604051633ee5aeb560e01b8152600490fd5b50346100cd57806003193601126100cd57610321610e99610f8f565b6040519182916020835260208301906110f3565b905034610ef05781600319360112610ef0577f00000000000000000000000000000000000000000000000000000000000000006001600160a01b03168152602090f35b5080fd5b604081019081106001600160401b03821117610f0f57604052565b634e487b7160e01b600052604160045260246000fd5b6001600160401b038111610f0f57604052565b608081019081106001600160401b03821117610f0f57604052565b90601f801991011681019081106001600160401b03821117610f0f57604052565b6001600160401b038111610f0f57601f01601f191660200190565b6040519061014082018281106001600160401b03821117610f0f57604052610104825263756e742960e01b610120837f4f70706f7274756e6974795769746e657373207769746e657373294f70706f7260208201527f74756e6974795769746e65737328546f6b656e416d6f756e745b5d206275795460408201527f6f6b656e732c61646472657373206578656375746f722c61646472657373207460608201527f6172676574436f6e74726163742c62797465732074617267657443616c6c646160808201527f74612c75696e743235362074617267657443616c6c56616c75652c75696e743260a08201527f353620626964416d6f756e7429546f6b656e416d6f756e74286164647265737360c08201527f20746f6b656e2c75696e7432353620616d6f756e7429546f6b656e5065726d6960e08201527f7373696f6e73286164647265737320746f6b656e2c75696e7432353620616d6f6101008201520152565b919082519283825260005b84811061111f575050826000602080949584010152601f8019910116010190565b6020818301810151848301820152016110fe565b6001600160401b038111610f0f5760051b60200190565b35906001600160a01b038216820361023b57565b919060c08382031261023b5760409283519160c08301916001600160401b039284811084821117610f0f5786528395813584811161023b5782019383601f8601121561023b578435946111b086611133565b906111bd84519283610f53565b868252602096878084019160061b8301019187831161023b578801905b82821061126c5750505086526111f185840161114a565b8587015261120082840161114a565b82870152606083013590811161023b57820183601f8201121561023b5780359361123561122c86610f74565b93519384610f53565b84835285858301011161023b57848460a0969587966000940183860137830101526060850152608081013560808501520135910152565b858289031261023b57888691825161128381610ef4565b61128c8561114a565b815282850135838201528152019101906111da565b3d156112cc573d906112b282610f74565b916112c06040519384610f53565b82523d6000602084013e565b606090565b60405163a9059cbb60e01b60208201526001600160a01b0392909216602483015260448083019390935291815261130d91610692606483610f53565b565b9081602091031261023b5751801515810361023b5790565b6000806113509260018060a01b03169360208151910182865af16113496112a1565b9083611399565b805190811515918261137e575b50506113665750565b60249060405190635274afe760e01b82526004820152fd5b611391925060208091830101910161130f565b15388061135d565b906113c057508051156113ae57805190602001fd5b604051630a12f52160e11b8152600490fd5b815115806113f3575b6113d1575090565b604051639996b31560e01b81526001600160a01b039091166004820152602490fd5b50803b156113c9565b90359060be198136030182121561023b570190565b903590601e198136030182121561023b57018035906001600160401b03821161023b57602001918160061b3603831361023b57565b903590605e198136030182121561023b570190565b356001600160a01b038116810361023b5790565b6000198114610b8b5760010190565b919081101561148e5760061b0190565b634e487b7160e01b600052603260045260246000fd5b600090815b8381106114b65750505050565b60018101808211611525575b8481106114d857506114d39061146f565b6114a9565b6114e66105a983878661147e565b6001600160a01b03806114fd6105a9858a8961147e565b169116146115135761150e9061146f565b6114c2565b6040516323271fb560e11b8152600490fd5b634e487b7160e01b84526011600452602484fd5b805182101561148e5760209160051b010190565b600090801561167e57817f00000000000000000000000000000000000000000000000000000000000000006001600160a01b031647838110611613575b50508080927f00000000000000000000000000000000000000000000000000000000000000005af16115ba6112a1565b50156115c257565b60405162461bcd60e51b8152602060048201526024808201527f426964207472616e7366657220746f20657870726573732072656c61792066616044820152631a5b195960e21b6064820152608490fd5b909150820382811161152557813b15610cae578391602483926040519485938492632e1a7d4d60e01b845260048401525af1908161166b575b5061166357604051632031c40f60e11b8152600490fd5b81808061158a565b61167790939193610f25565b913861164c565b5050565b6040516370a0823160e01b815230600482015290476020836024817f00000000000000000000000000000000000000000000000000000000000000006001600160a01b03165afa92831561170b576000936116dc57509190565b90926020823d8211611703575b816116f660209383610f53565b810103126100cd57505190565b3d91506116e9565b6040513d6000823e3d90fd5b604091825160e081016001600160401b039082811082821117610f0f57855260bb8252602060bb8184017f4f70706f7274756e6974795769746e65737328546f6b656e416d6f756e745b5d81527f20627579546f6b656e732c61646472657373206578656375746f722c61646472888601527f647265737320746f6b656e2c75696e7432353620616d6f756e7429000000000060c06060967f65737320746172676574436f6e74726163742c62797465732074617267657443888201527f616c6c646174612c75696e743235362074617267657443616c6c56616c75652c60808201527f75696e7432353620626964416d6f756e7429546f6b656e416d6f756e7428616460a08201520152209385519081519561184b61183688611133565b976118438b51998a610f53565b808952611133565b97848801601f19809a0136823760005b85518110156119055761186e8187611539565b51908c51918a83018381108b821117610f0f57611900938f918252602990818152683620616d6f756e742960b81b838d8301927f546f6b656e416d6f756e74286164647265737320746f6b656e2c75696e7432358452015220918a60018060a01b03825116910151908251928c84019485528301528c8201528b81526118f381610f38565b519020610dbf828d611539565b61185b565b50909350989495939691989790978551918289810180955190939060005b8c8282106119ac575050505061193f9203908101835282610f53565b5190209160018060a01b0380878401511690858401511690828401518881519101209260a06080860151950151958751998a019a8b52878a0152880152608087015260a086015260c085015260e084015260e0835261010083019183831090831117610f0f575251902090565b83518752958601958794509092019160010161192356fea2646970667358221220538eb6deeb4e73af2c4c430ba93efd1b82b83a1fbd3d61f12d2e88b2548fbf7764736f6c63430008140033","linkReferences":{}},"methodIdentifiers":{"WITNESS_TYPE_STRING()":"156e2152","executeOpportunity((((address,uint256)[],uint256,uint256),((address,uint256)[],address,address,bytes,uint256,uint256)),bytes)":"2608ba81","getExpressRelay()":"c9b4518a","getOwner()":"893d20e8","getWeth()":"107c279f","hash(((address,uint256)[],address,address,bytes,uint256,uint256))":"6184196a","version()":"54fd4d50","withdrawEth()":"a0ef91df","withdrawToken(address)":"89476069"},"id":87}