{"abi":[{"type":"constructor","inputs":[{"name":"expressRelay","type":"address","internalType":"address"},{"name":"weth","type":"address","internalType":"address"},{"name":"permit2","type":"address","internalType":"address"}],"stateMutability":"nonpayable"},{"type":"function","name":"computeAddress","inputs":[{"name":"owner","type":"address","internalType":"address"}],"outputs":[{"name":"","type":"address","internalType":"address"}],"stateMutability":"view"},{"type":"function","name":"createAdapter","inputs":[{"name":"owner","type":"address","internalType":"address"}],"outputs":[{"name":"","type":"address","internalType":"address"}],"stateMutability":"nonpayable"},{"type":"function","name":"executeOpportunity","inputs":[{"name":"params","type":"tuple","internalType":"struct ExecutionParams","components":[{"name":"permit","type":"tuple","internalType":"struct ISignatureTransfer.PermitBatchTransferFrom","components":[{"name":"permitted","type":"tuple[]","internalType":"struct ISignatureTransfer.TokenPermissions[]","components":[{"name":"token","type":"address","internalType":"address"},{"name":"amount","type":"uint256","internalType":"uint256"}]},{"name":"nonce","type":"uint256","internalType":"uint256"},{"name":"deadline","type":"uint256","internalType":"uint256"}]},{"name":"witness","type":"tuple","internalType":"struct ExecutionWitness","components":[{"name":"buyTokens","type":"tuple[]","internalType":"struct TokenAmount[]","components":[{"name":"token","type":"address","internalType":"address"},{"name":"amount","type":"uint256","internalType":"uint256"}]},{"name":"executor","type":"address","internalType":"address"},{"name":"targetContract","type":"address","internalType":"address"},{"name":"targetCalldata","type":"bytes","internalType":"bytes"},{"name":"targetCallValue","type":"uint256","internalType":"uint256"},{"name":"bidAmount","type":"uint256","internalType":"uint256"}]}]},{"name":"signature","type":"bytes","internalType":"bytes"}],"outputs":[],"stateMutability":"payable"},{"type":"function","name":"getExpressRelay","inputs":[],"outputs":[{"name":"","type":"address","internalType":"address"}],"stateMutability":"view"},{"type":"function","name":"getOpportunityAdapterCreationCodeHash","inputs":[],"outputs":[{"name":"","type":"bytes32","internalType":"bytes32"}],"stateMutability":"view"},{"type":"function","name":"getPermit2","inputs":[],"outputs":[{"name":"","type":"address","internalType":"address"}],"stateMutability":"view"},{"type":"function","name":"getWeth","inputs":[],"outputs":[{"name":"","type":"address","internalType":"address"}],"stateMutability":"view"},{"type":"function","name":"parameters","inputs":[],"outputs":[{"name":"expressRelay","type":"address","internalType":"address"},{"name":"weth","type":"address","internalType":"address"},{"name":"permit2","type":"address","internalType":"address"},{"name":"owner","type":"address","internalType":"address"}],"stateMutability":"view"},{"type":"error","name":"Create2EmptyBytecode","inputs":[]},{"type":"error","name":"Create2FailedDeployment","inputs":[]},{"type":"error","name":"Create2InsufficientBalance","inputs":[{"name":"balance","type":"uint256","internalType":"uint256"},{"name":"needed","type":"uint256","internalType":"uint256"}]},{"type":"error","name":"NotCalledByExpressRelay","inputs":[]},{"type":"error","name":"ReentrancyGuardReentrantCall","inputs":[]}],"bytecode":{"object":"0x6080604052346100b157613f346060813803918261001c816100b5565b9384928339810103126100b157610032816100ee565b9061004b6040610044602084016100ee565b92016100ee565b60015f5560018060a01b0380928160018060a01b031995168560015416176001551683600254161760025516906003541617600355611b6d61008f602082016100b5565b81815260208101916123c783395190206004556040516122c490816101038239f35b5f80fd5b6040519190601f01601f191682016001600160401b038111838210176100da57604052565b634e487b7160e01b5f52604160045260245ffd5b51906001600160a01b03821682036100b15756fe6080806040526004361015610012575f80fd5b5f90813560e01c908163107c279f146104f5575080631bbf2e23146104cc5780632608ba81146101615780633e239349146101435780634e1d91d81461011f57806389035730146100d7578063acf461f9146100a15763c9b4518a14610076575f80fd5b3461009e578060031936011261009e576001546040516001600160a01b039091168152602090f35b80fd5b503461009e57602036600319011261009e5760206100c56100c061051a565b610548565b6040516001600160a01b039091168152f35b503461009e578060031936011261009e57608060018060a01b038060055416908060065416908060075416906008541691604051938452602084015260408301526060820152f35b503461009e57602036600319011261009e5760206100c561013e61051a565b610658565b503461009e578060031936011261009e576020600454604051908152f35b50604036600319011261009e5767ffffffffffffffff6004351161009e576004356004016040600319600435360301126104c85767ffffffffffffffff602435116104c8573660236024350112156104c85767ffffffffffffffff60243560040135116104c85736602480356004013581350101116104c85760028254146104b657600282556001546001600160a01b031633036104a45761021661013e602061021060246004350185610683565b01610698565b63ffffffff813b1615610487575b6001600160a01b0381163b156104835760405191632608ba8160e01b835260406004840152359060621960043536030182121561047f576040604484015260e483019161027760048035830101806106ac565b6060608487015293849052610104850193865b8181106104615750505060043590810160248181013560a48701526044919091013560c486015281013590360360c2190181121561045d578383036043190160648501528492919060c08301906102e760048035830101806106ac565b60c086529283905260e0850192865b81811061043557506001600160a01b03915061031a90506004358301602401610534565b1660208501526001600160a01b036103386004358301604401610534565b166040850152600435810160648101359036036022190181121561043157600435820101906024600483013592019067ffffffffffffffff831161042d57823603821361042d578560a060a461039f878c9a976103d4978c9a998b9a036060880152610701565b936084600435820101356080850152600435010135910152600319838203016024840152602435600401356024803501610701565b039134906001600160a01b03165af18015610422576103f6575b506001815580f35b67ffffffffffffffff811161040e576040525f6103ee565b634e487b7160e01b82526041600452602482fd5b6040513d84823e3d90fd5b8680fd5b8580fd5b919495965091926040808261044c600194896106e1565b0195019101918896959493926102f6565b8480fd5b909194604080826104746001948a6106e1565b01960192910161028a565b8380fd5b8280fd5b61049e6100c0602061021060246004350186610683565b50610224565b604051631aacd19160e31b8152600490fd5b604051633ee5aeb560e01b8152600490fd5b5080fd5b503461009e578060031936011261009e576003546040516001600160a01b039091168152602090f35b9050346104c857816003193601126104c8576002546001600160a01b03168152602090f35b600435906001600160a01b038216820361053057565b5f80fd5b35906001600160a01b038216820361053057565b60018060a01b038091168160015416908260025416836003541690604093845192608084019267ffffffffffffffff948085108686111761064457606087959186928a52858152836020820152848a82015201526bffffffffffffffffffffffff60a01b928360055416176005558260065416176006558160075416176007556008541617600855611b6d90835190601f19603f84011682019082821090821117610644578452818152602081019161072283398051156106335751905ff59182161561062357505f6005555f6006555f6007555f60085590565b51633a0ba96160e11b8152600490fd5b8351631328927760e21b8152600490fd5b634e487b7160e01b5f52604160045260245ffd5b600b6055916004549060405191604083015260018060a01b031660208201523081520160ff81532090565b90359060be1981360301821215610530570190565b356001600160a01b03811681036105305790565b9035601e198236030181121561053057016020813591019167ffffffffffffffff8211610530578160061b3603831361053057565b60209081906001600160a01b036106f782610534565b1684520135910152565b908060209392818452848401375f828201840152601f01601f191601019056fe610120806040523462000171575f60018155608091338352630890357360e41b81528281600481335afa908115620001665782918391848092620000c6575b505060a05261010092835260e05260c052604051906119e292836200018b843951826103a1015260a05182818160e1015281816101ac0152818161026601526103f4015260c051828181609c015261157e015260e051828181610c0801528181610eba01528181611546015261168c0152518181816104330152818161070101526108540152f35b935093505050823d84116200015e575b601f8101601f191683016001600160401b038111848210176200014a5784918491604052810103126200014757506200010f8162000175565b906200011e6020820162000175565b906200013b6060620001336040840162000175565b920162000175565b929190925f806200003e565b80fd5b634e487b7160e01b83526041600452602483fd5b503d620000d6565b6040513d84823e3d90fd5b5f80fd5b51906001600160a01b0382168203620001715756fe608080604052600436101561001c575b50361561001a575f80fd5b005b5f90813560e01c908163107c279f14610ea657508063156e215214610e765780632608ba811461032257806354fd4d50146102d85780636184196a14610295578063893d20e8146102505780638947606914610182578063a0ef91df146100ce5763c9b4518a0361000f57346100cb57806003193601126100cb576040517f00000000000000000000000000000000000000000000000000000000000000006001600160a01b03168152602090f35b80fd5b50346100cb57806003193601126100cb577f00000000000000000000000000000000000000000000000000000000000000006001600160a01b03163381900361017057818080809347905af1610122611295565b501561012b5780f35b60405162461bcd60e51b815260206004820152601860248201527f5769746864726177616c206f6620455448206661696c656400000000000000006044820152606490fd5b6040516308f51d4b60e31b8152600490fd5b50346100cb5760203660031901126100cb576001600160a01b0360043581811690819003610239577f00000000000000000000000000000000000000000000000000000000000000009182163303610170576040516370a0823160e01b815230600482015291602083602481855afa91821561024557849261020c575b61020993506112c4565b80f35b91506020833d821161023d575b8161022660209383610f4a565b81010312610239576102099251916101ff565b5f80fd5b3d9150610219565b6040513d86823e3d90fd5b50346100cb57806003193601126100cb576040517f00000000000000000000000000000000000000000000000000000000000000006001600160a01b03168152602090f35b50346100cb5760203660031901126100cb57600435906001600160401b0382116100cb5760206102d06102cb3660048601611153565b611702565b604051908152f35b50346100cb57806003193601126100cb5761031e6040516102f881610eed565b60058152640302e322e360dc1b60208201526040519182916020835260208301906110ea565b0390f35b5060403660031901126100cb57600435906001600160401b0382116100cb57604060031983360301126100cb576001600160401b03602435116100cb573660236024350112156100cb576001600160401b0360243560040135116100cb5736602480356004013581350101116100cb576002815414610e6457600281557f00000000000000000000000000000000000000000000000000000000000000006001600160a01b03163303610e52576103ea60206103e460248501856004016113ee565b0161144d565b6001600160a01b037f00000000000000000000000000000000000000000000000000000000000000008116911603610e405761043160406103e460248501856004016113ee565b7f00000000000000000000000000000000000000000000000000000000000000006001600160a01b039081169116148015610e1a575b610e085761048a61048461047e6004850180611438565b80611403565b90611493565b6104a061048461047e60248501856004016113ee565b6104a861166f565b6104be61047e60248695949501866004016113ee565b6104c781611128565b916104d56040519384610f4a565b818352601f196104e483611128565b01366020850137845b828110610d6757506105059150506004860180611438565b9161051660248701876004016113ee565b916105218480611403565b97905061054661053089611128565b9861053e6040519a8b610f4a565b808a52611128565b865b601f1982018110610d44575050855b6105618680611403565b90508110156106d6578060206105846106509361057e8a80611403565b9061146f565b0135816105ab6105a66105978b80611403565b6001600160a01b03949161146f565b61144d565b168b6105cc84604051926105be84610eed565b308452856020850152611527565b526105d7838d611527565b506105e46040890161144d565b60405163095ea7b360e01b602082018181526001600160a01b038416602484015260448084019690965294825293909291908c908190610625606487610f4a565b85519082865af1610634611295565b816106a7575b508061069d575b15610655575b50505050611461565b610557565b60405160208101949094526001600160a01b0316602484015260448084018c905283526106949261068f9061068981610f2f565b8261131a565b61131a565b5f808080610647565b50813b1515610641565b80518015925082156106bc575b50505f61063a565b6106cf9250602080918301019101611302565b5f806106b4565b508686868a876106f66102cb6106ee6020840161144d565b923690611153565b6106fe610f86565b917f00000000000000000000000000000000000000000000000000000000000000006001600160a01b03163b15610d405760405163fe8ec1a760e01b815260c060048201529480359036819003601e1901821215610d3c576001600160401b038183013511610d3c578082013560061b360360208284010113610d3c579187959391879593606060c4880152610124870181830135905261014487019160208282010190895b838201358110610cf657505050806020604092013560e4890152013561010487015260031986820301602487015260208086519283815201950190875b818110610cc5575050506001600160a01b031660448501526064840152828203600319016084840152602091839161081991906110ea565b6003198282030160a4830152602480356004810135808452910184830137600460243501358181018401869052601f01601f191601030181837f00000000000000000000000000000000000000000000000000000000000000006001600160a01b03165af18015610cba57610cab575b5090608061089d60248501856004016113ee565b0135610c06575b6108b960406103e460248601866004016113ee565b6108c960248501856004016113ee565b606081013590601e1981360301821215610c0257018035906001600160401b038211610c02576020018136038113610c0257918492918392608061091360248a018a6004016113ee565b013590826040519384928337810185815203925af1610930611295565b9015610bd957506109446004840180611438565b9461095a60406103e460248701876004016113ee565b93835b6109678880611403565b9050811015610a5e57806109e7916109856105a66105978c80611403565b1660405160208101915f8063095ea7b360e01b9485815260018060a01b038d166024860152816044860152604485526109bd85610f2f565b84519082855af16109cc611295565b81610a2f575b5080610a25575b156109ec575b505050611461565b61095d565b61068f610a1d9360405190602082015260018060a01b038c1660248201525f60448201526044815261068981610f2f565b8980806109df565b50803b15156109d9565b8051801592508215610a44575b50508d6109d2565b610a579250602080918301019101611302565b8d80610a3c565b506103e486610a7f60a0610a7860248601866004016113ee565b013561153b565b610aa76020610a9761047e60248701876004016113ee565b94909560248101906004016113ee565b92865b838110610aef57878787610abc61166f565b9211918215610ae5575b5050610ad3576001815580f35b604051631979776d60e01b8152600490fd5b1090508280610ac6565b6001600160a01b03610b056105a683878661146f565b6040516370a0823160e01b8152306004820152929116602083602481845afa928315610bce578a93610b9a575b50610b3d8286611527565b516020610b4b84898861146f565b01358101809111610b86578310610b7457610b6f9287610b6a926112c4565b611461565b610aaa565b604051632578a3d560e11b8152600490fd5b634e487b7160e01b5f52601160045260245ffd5b9092506020813d602011610bc6575b81610bb660209383610f4a565b810103126102395751918a610b32565b3d9150610ba9565b6040513d8c823e3d90fd5b60405163549964bd60e11b815260206004820152908190610bfe9060248301906110ea565b0390fd5b8480fd5b7f00000000000000000000000000000000000000000000000000000000000000006001600160a01b03166080610c4260248601600487016113ee565b0135813b15610ca757838092602482936040519586938492632e1a7d4d60e01b845260048401525af19182610c8f575b5050610c8a57604051631794833560e21b8152600490fd5b6108a4565b610c9890610f1c565b610ca3578287610c72565b8280fd5b8380fd5b610cb490610f1c565b85610889565b6040513d84823e3d90fd5b825180516001600160a01b03168852602090810151818901528b99508a9850604090970196909201916001016107e1565b929496985092849195979950604080600192838060a01b03610d178a61113f565b1681526020890135602082015201960192018a98969450928b999795939291926107a4565b8780fd5b8580fd5b602090604051610d5381610eed565b898152898382015282828d01015201610548565b60249060206001600160a01b03610d826105a684888861146f565b16604051938480926370a0823160e01b82523060048301525afa8015610dfd578790610dc3575b610dbe9250610db88287611527565b52611461565b6104ed565b50906020813d602011610df5575b81610dde60209383610f4a565b81010312610df15790610dbe9151610da9565b8680fd5b3d9150610dd1565b6040513d89823e3d90fd5b604051634e4372cf60e11b8152600490fd5b50610e3060406103e460248501856004016113ee565b6001600160a01b03163014610467565b60405163446f3eeb60e01b8152600490fd5b604051632c090db360e21b8152600490fd5b604051633ee5aeb560e01b8152600490fd5b50346100cb57806003193601126100cb5761031e610e92610f86565b6040519182916020835260208301906110ea565b905034610ee95781600319360112610ee9577f00000000000000000000000000000000000000000000000000000000000000006001600160a01b03168152602090f35b5080fd5b604081019081106001600160401b03821117610f0857604052565b634e487b7160e01b5f52604160045260245ffd5b6001600160401b038111610f0857604052565b608081019081106001600160401b03821117610f0857604052565b90601f801991011681019081106001600160401b03821117610f0857604052565b6001600160401b038111610f0857601f01601f191660200190565b6040519061014082018281106001600160401b03821117610f0857604052610104825263756e742960e01b610120837f4f70706f7274756e6974795769746e657373207769746e657373294f70706f7260208201527f74756e6974795769746e65737328546f6b656e416d6f756e745b5d206275795460408201527f6f6b656e732c61646472657373206578656375746f722c61646472657373207460608201527f6172676574436f6e74726163742c62797465732074617267657443616c6c646160808201527f74612c75696e743235362074617267657443616c6c56616c75652c75696e743260a08201527f353620626964416d6f756e7429546f6b656e416d6f756e74286164647265737360c08201527f20746f6b656e2c75696e7432353620616d6f756e7429546f6b656e5065726d6960e08201527f7373696f6e73286164647265737320746f6b656e2c75696e7432353620616d6f6101008201520152565b91908251928382525f5b848110611114575050825f602080949584010152601f8019910116010190565b6020818301810151848301820152016110f4565b6001600160401b038111610f085760051b60200190565b35906001600160a01b038216820361023957565b919060c0838203126102395760409283519160c08301916001600160401b039284811084821117610f08578652839581358481116102395782019383601f86011215610239578435946111a586611128565b906111b284519283610f4a565b868252602096878084019160061b83010191878311610239578801905b8282106112605750505086526111e685840161113f565b858701526111f582840161113f565b82870152606083013590811161023957820183601f820112156102395780359361122a61122186610f6b565b93519384610f4a565b84835285858301011161023957848460a0969587965f940183860137830101526060850152608081013560808501520135910152565b858289031261023957888691825161127781610eed565b6112808561113f565b815282850135838201528152019101906111cf565b3d156112bf573d906112a682610f6b565b916112b46040519384610f4a565b82523d5f602084013e565b606090565b60405163a9059cbb60e01b60208201526001600160a01b039290921660248301526044808301939093529181526113009161068f606483610f4a565b565b90816020910312610239575180151581036102395790565b5f806113429260018060a01b03169360208151910182865af161133b611295565b908361138b565b8051908115159182611370575b50506113585750565b60249060405190635274afe760e01b82526004820152fd5b6113839250602080918301019101611302565b155f8061134f565b906113b257508051156113a057805190602001fd5b604051630a12f52160e11b8152600490fd5b815115806113e5575b6113c3575090565b604051639996b31560e01b81526001600160a01b039091166004820152602490fd5b50803b156113bb565b90359060be1981360301821215610239570190565b903590601e198136030182121561023957018035906001600160401b03821161023957602001918160061b3603831361023957565b903590605e1981360301821215610239570190565b356001600160a01b03811681036102395790565b5f198114610b865760010190565b919081101561147f5760061b0190565b634e487b7160e01b5f52603260045260245ffd5b5f90815b8381106114a45750505050565b60018101808211611513575b8481106114c657506114c190611461565b611497565b6114d46105a683878661146f565b6001600160a01b03806114eb6105a6858a8961146f565b16911614611501576114fc90611461565b6114b0565b6040516323271fb560e11b8152600490fd5b634e487b7160e01b84526011600452602484fd5b805182101561147f5760209160051b010190565b5f90801561166b57817f00000000000000000000000000000000000000000000000000000000000000006001600160a01b031647838110611600575b50508080927f00000000000000000000000000000000000000000000000000000000000000005af16115a7611295565b50156115af57565b60405162461bcd60e51b8152602060048201526024808201527f426964207472616e7366657220746f20657870726573732072656c61792066616044820152631a5b195960e21b6064820152608490fd5b909150820382811161151357813b15610ca7578391602483926040519485938492632e1a7d4d60e01b845260048401525af19081611658575b5061165057604051632031c40f60e11b8152600490fd5b818080611577565b61166490939193610f1c565b915f611639565b5050565b6040516370a0823160e01b815230600482015290476020836024817f00000000000000000000000000000000000000000000000000000000000000006001600160a01b03165afa9283156116f7575f936116c857509190565b90926020823d82116116ef575b816116e260209383610f4a565b810103126100cb57505190565b3d91506116d5565b6040513d5f823e3d90fd5b604091825160e081016001600160401b039082811082821117610f0857855260bb8252602060bb8184017f4f70706f7274756e6974795769746e65737328546f6b656e416d6f756e745b5d81527f20627579546f6b656e732c61646472657373206578656375746f722c61646472888601527f647265737320746f6b656e2c75696e7432353620616d6f756e7429000000000060c06060967f65737320746172676574436f6e74726163742c62797465732074617267657443888201527f616c6c646174612c75696e743235362074617267657443616c6c56616c75652c60808201527f75696e7432353620626964416d6f756e7429546f6b656e416d6f756e7428616460a08201520152209385519081519561183661182188611128565b9761182e8b51998a610f4a565b808952611128565b97848801601f19809a013682375f5b85518110156118ef576118588187611527565b51908c51918a83018381108b821117610f08576118ea938f918252602990818152683620616d6f756e742960b81b838d8301927f546f6b656e416d6f756e74286164647265737320746f6b656e2c75696e7432358452015220918a60018060a01b03825116910151908251928c84019485528301528c8201528b81526118dd81610f2f565b519020610db8828d611527565b611845565b5090935098949593969198979097855191828981018095519093905f5b8c82821061199557505050506119289203908101835282610f4a565b5190209160018060a01b0380878401511690858401511690828401518881519101209260a06080860151950151958751998a019a8b52878a0152880152608087015260a086015260c085015260e084015260e0835261010083019183831090831117610f08575251902090565b83518752958601958794509092019160010161190c56fea2646970667358221220797322f89790945f9447121f12f2c5f8b9fb27cdcaa77d6df10908917f7348ed64736f6c63430008140033a264697066735822122026fba97d0c60980bb3a7ca4ba9350b1cbff5283b96ff5cee14361083da22f93f64736f6c63430008140033610120806040523462000171575f60018155608091338352630890357360e41b81528281600481335afa908115620001665782918391848092620000c6575b505060a05261010092835260e05260c052604051906119e292836200018b843951826103a1015260a05182818160e1015281816101ac0152818161026601526103f4015260c051828181609c015261157e015260e051828181610c0801528181610eba01528181611546015261168c0152518181816104330152818161070101526108540152f35b935093505050823d84116200015e575b601f8101601f191683016001600160401b038111848210176200014a5784918491604052810103126200014757506200010f8162000175565b906200011e6020820162000175565b906200013b6060620001336040840162000175565b920162000175565b929190925f806200003e565b80fd5b634e487b7160e01b83526041600452602483fd5b503d620000d6565b6040513d84823e3d90fd5b5f80fd5b51906001600160a01b0382168203620001715756fe608080604052600436101561001c575b50361561001a575f80fd5b005b5f90813560e01c908163107c279f14610ea657508063156e215214610e765780632608ba811461032257806354fd4d50146102d85780636184196a14610295578063893d20e8146102505780638947606914610182578063a0ef91df146100ce5763c9b4518a0361000f57346100cb57806003193601126100cb576040517f00000000000000000000000000000000000000000000000000000000000000006001600160a01b03168152602090f35b80fd5b50346100cb57806003193601126100cb577f00000000000000000000000000000000000000000000000000000000000000006001600160a01b03163381900361017057818080809347905af1610122611295565b501561012b5780f35b60405162461bcd60e51b815260206004820152601860248201527f5769746864726177616c206f6620455448206661696c656400000000000000006044820152606490fd5b6040516308f51d4b60e31b8152600490fd5b50346100cb5760203660031901126100cb576001600160a01b0360043581811690819003610239577f00000000000000000000000000000000000000000000000000000000000000009182163303610170576040516370a0823160e01b815230600482015291602083602481855afa91821561024557849261020c575b61020993506112c4565b80f35b91506020833d821161023d575b8161022660209383610f4a565b81010312610239576102099251916101ff565b5f80fd5b3d9150610219565b6040513d86823e3d90fd5b50346100cb57806003193601126100cb576040517f00000000000000000000000000000000000000000000000000000000000000006001600160a01b03168152602090f35b50346100cb5760203660031901126100cb57600435906001600160401b0382116100cb5760206102d06102cb3660048601611153565b611702565b604051908152f35b50346100cb57806003193601126100cb5761031e6040516102f881610eed565b60058152640302e322e360dc1b60208201526040519182916020835260208301906110ea565b0390f35b5060403660031901126100cb57600435906001600160401b0382116100cb57604060031983360301126100cb576001600160401b03602435116100cb573660236024350112156100cb576001600160401b0360243560040135116100cb5736602480356004013581350101116100cb576002815414610e6457600281557f00000000000000000000000000000000000000000000000000000000000000006001600160a01b03163303610e52576103ea60206103e460248501856004016113ee565b0161144d565b6001600160a01b037f00000000000000000000000000000000000000000000000000000000000000008116911603610e405761043160406103e460248501856004016113ee565b7f00000000000000000000000000000000000000000000000000000000000000006001600160a01b039081169116148015610e1a575b610e085761048a61048461047e6004850180611438565b80611403565b90611493565b6104a061048461047e60248501856004016113ee565b6104a861166f565b6104be61047e60248695949501866004016113ee565b6104c781611128565b916104d56040519384610f4a565b818352601f196104e483611128565b01366020850137845b828110610d6757506105059150506004860180611438565b9161051660248701876004016113ee565b916105218480611403565b97905061054661053089611128565b9861053e6040519a8b610f4a565b808a52611128565b865b601f1982018110610d44575050855b6105618680611403565b90508110156106d6578060206105846106509361057e8a80611403565b9061146f565b0135816105ab6105a66105978b80611403565b6001600160a01b03949161146f565b61144d565b168b6105cc84604051926105be84610eed565b308452856020850152611527565b526105d7838d611527565b506105e46040890161144d565b60405163095ea7b360e01b602082018181526001600160a01b038416602484015260448084019690965294825293909291908c908190610625606487610f4a565b85519082865af1610634611295565b816106a7575b508061069d575b15610655575b50505050611461565b610557565b60405160208101949094526001600160a01b0316602484015260448084018c905283526106949261068f9061068981610f2f565b8261131a565b61131a565b5f808080610647565b50813b1515610641565b80518015925082156106bc575b50505f61063a565b6106cf9250602080918301019101611302565b5f806106b4565b508686868a876106f66102cb6106ee6020840161144d565b923690611153565b6106fe610f86565b917f00000000000000000000000000000000000000000000000000000000000000006001600160a01b03163b15610d405760405163fe8ec1a760e01b815260c060048201529480359036819003601e1901821215610d3c576001600160401b038183013511610d3c578082013560061b360360208284010113610d3c579187959391879593606060c4880152610124870181830135905261014487019160208282010190895b838201358110610cf657505050806020604092013560e4890152013561010487015260031986820301602487015260208086519283815201950190875b818110610cc5575050506001600160a01b031660448501526064840152828203600319016084840152602091839161081991906110ea565b6003198282030160a4830152602480356004810135808452910184830137600460243501358181018401869052601f01601f191601030181837f00000000000000000000000000000000000000000000000000000000000000006001600160a01b03165af18015610cba57610cab575b5090608061089d60248501856004016113ee565b0135610c06575b6108b960406103e460248601866004016113ee565b6108c960248501856004016113ee565b606081013590601e1981360301821215610c0257018035906001600160401b038211610c02576020018136038113610c0257918492918392608061091360248a018a6004016113ee565b013590826040519384928337810185815203925af1610930611295565b9015610bd957506109446004840180611438565b9461095a60406103e460248701876004016113ee565b93835b6109678880611403565b9050811015610a5e57806109e7916109856105a66105978c80611403565b1660405160208101915f8063095ea7b360e01b9485815260018060a01b038d166024860152816044860152604485526109bd85610f2f565b84519082855af16109cc611295565b81610a2f575b5080610a25575b156109ec575b505050611461565b61095d565b61068f610a1d9360405190602082015260018060a01b038c1660248201525f60448201526044815261068981610f2f565b8980806109df565b50803b15156109d9565b8051801592508215610a44575b50508d6109d2565b610a579250602080918301019101611302565b8d80610a3c565b506103e486610a7f60a0610a7860248601866004016113ee565b013561153b565b610aa76020610a9761047e60248701876004016113ee565b94909560248101906004016113ee565b92865b838110610aef57878787610abc61166f565b9211918215610ae5575b5050610ad3576001815580f35b604051631979776d60e01b8152600490fd5b1090508280610ac6565b6001600160a01b03610b056105a683878661146f565b6040516370a0823160e01b8152306004820152929116602083602481845afa928315610bce578a93610b9a575b50610b3d8286611527565b516020610b4b84898861146f565b01358101809111610b86578310610b7457610b6f9287610b6a926112c4565b611461565b610aaa565b604051632578a3d560e11b8152600490fd5b634e487b7160e01b5f52601160045260245ffd5b9092506020813d602011610bc6575b81610bb660209383610f4a565b810103126102395751918a610b32565b3d9150610ba9565b6040513d8c823e3d90fd5b60405163549964bd60e11b815260206004820152908190610bfe9060248301906110ea565b0390fd5b8480fd5b7f00000000000000000000000000000000000000000000000000000000000000006001600160a01b03166080610c4260248601600487016113ee565b0135813b15610ca757838092602482936040519586938492632e1a7d4d60e01b845260048401525af19182610c8f575b5050610c8a57604051631794833560e21b8152600490fd5b6108a4565b610c9890610f1c565b610ca3578287610c72565b8280fd5b8380fd5b610cb490610f1c565b85610889565b6040513d84823e3d90fd5b825180516001600160a01b03168852602090810151818901528b99508a9850604090970196909201916001016107e1565b929496985092849195979950604080600192838060a01b03610d178a61113f565b1681526020890135602082015201960192018a98969450928b999795939291926107a4565b8780fd5b8580fd5b602090604051610d5381610eed565b898152898382015282828d01015201610548565b60249060206001600160a01b03610d826105a684888861146f565b16604051938480926370a0823160e01b82523060048301525afa8015610dfd578790610dc3575b610dbe9250610db88287611527565b52611461565b6104ed565b50906020813d602011610df5575b81610dde60209383610f4a565b81010312610df15790610dbe9151610da9565b8680fd5b3d9150610dd1565b6040513d89823e3d90fd5b604051634e4372cf60e11b8152600490fd5b50610e3060406103e460248501856004016113ee565b6001600160a01b03163014610467565b60405163446f3eeb60e01b8152600490fd5b604051632c090db360e21b8152600490fd5b604051633ee5aeb560e01b8152600490fd5b50346100cb57806003193601126100cb5761031e610e92610f86565b6040519182916020835260208301906110ea565b905034610ee95781600319360112610ee9577f00000000000000000000000000000000000000000000000000000000000000006001600160a01b03168152602090f35b5080fd5b604081019081106001600160401b03821117610f0857604052565b634e487b7160e01b5f52604160045260245ffd5b6001600160401b038111610f0857604052565b608081019081106001600160401b03821117610f0857604052565b90601f801991011681019081106001600160401b03821117610f0857604052565b6001600160401b038111610f0857601f01601f191660200190565b6040519061014082018281106001600160401b03821117610f0857604052610104825263756e742960e01b610120837f4f70706f7274756e6974795769746e657373207769746e657373294f70706f7260208201527f74756e6974795769746e65737328546f6b656e416d6f756e745b5d206275795460408201527f6f6b656e732c61646472657373206578656375746f722c61646472657373207460608201527f6172676574436f6e74726163742c62797465732074617267657443616c6c646160808201527f74612c75696e743235362074617267657443616c6c56616c75652c75696e743260a08201527f353620626964416d6f756e7429546f6b656e416d6f756e74286164647265737360c08201527f20746f6b656e2c75696e7432353620616d6f756e7429546f6b656e5065726d6960e08201527f7373696f6e73286164647265737320746f6b656e2c75696e7432353620616d6f6101008201520152565b91908251928382525f5b848110611114575050825f602080949584010152601f8019910116010190565b6020818301810151848301820152016110f4565b6001600160401b038111610f085760051b60200190565b35906001600160a01b038216820361023957565b919060c0838203126102395760409283519160c08301916001600160401b039284811084821117610f08578652839581358481116102395782019383601f86011215610239578435946111a586611128565b906111b284519283610f4a565b868252602096878084019160061b83010191878311610239578801905b8282106112605750505086526111e685840161113f565b858701526111f582840161113f565b82870152606083013590811161023957820183601f820112156102395780359361122a61122186610f6b565b93519384610f4a565b84835285858301011161023957848460a0969587965f940183860137830101526060850152608081013560808501520135910152565b858289031261023957888691825161127781610eed565b6112808561113f565b815282850135838201528152019101906111cf565b3d156112bf573d906112a682610f6b565b916112b46040519384610f4a565b82523d5f602084013e565b606090565b60405163a9059cbb60e01b60208201526001600160a01b039290921660248301526044808301939093529181526113009161068f606483610f4a565b565b90816020910312610239575180151581036102395790565b5f806113429260018060a01b03169360208151910182865af161133b611295565b908361138b565b8051908115159182611370575b50506113585750565b60249060405190635274afe760e01b82526004820152fd5b6113839250602080918301019101611302565b155f8061134f565b906113b257508051156113a057805190602001fd5b604051630a12f52160e11b8152600490fd5b815115806113e5575b6113c3575090565b604051639996b31560e01b81526001600160a01b039091166004820152602490fd5b50803b156113bb565b90359060be1981360301821215610239570190565b903590601e198136030182121561023957018035906001600160401b03821161023957602001918160061b3603831361023957565b903590605e1981360301821215610239570190565b356001600160a01b03811681036102395790565b5f198114610b865760010190565b919081101561147f5760061b0190565b634e487b7160e01b5f52603260045260245ffd5b5f90815b8381106114a45750505050565b60018101808211611513575b8481106114c657506114c190611461565b611497565b6114d46105a683878661146f565b6001600160a01b03806114eb6105a6858a8961146f565b16911614611501576114fc90611461565b6114b0565b6040516323271fb560e11b8152600490fd5b634e487b7160e01b84526011600452602484fd5b805182101561147f5760209160051b010190565b5f90801561166b57817f00000000000000000000000000000000000000000000000000000000000000006001600160a01b031647838110611600575b50508080927f00000000000000000000000000000000000000000000000000000000000000005af16115a7611295565b50156115af57565b60405162461bcd60e51b8152602060048201526024808201527f426964207472616e7366657220746f20657870726573732072656c61792066616044820152631a5b195960e21b6064820152608490fd5b909150820382811161151357813b15610ca7578391602483926040519485938492632e1a7d4d60e01b845260048401525af19081611658575b5061165057604051632031c40f60e11b8152600490fd5b818080611577565b61166490939193610f1c565b915f611639565b5050565b6040516370a0823160e01b815230600482015290476020836024817f00000000000000000000000000000000000000000000000000000000000000006001600160a01b03165afa9283156116f7575f936116c857509190565b90926020823d82116116ef575b816116e260209383610f4a565b810103126100cb57505190565b3d91506116d5565b6040513d5f823e3d90fd5b604091825160e081016001600160401b039082811082821117610f0857855260bb8252602060bb8184017f4f70706f7274756e6974795769746e65737328546f6b656e416d6f756e745b5d81527f20627579546f6b656e732c61646472657373206578656375746f722c61646472888601527f647265737320746f6b656e2c75696e7432353620616d6f756e7429000000000060c06060967f65737320746172676574436f6e74726163742c62797465732074617267657443888201527f616c6c646174612c75696e743235362074617267657443616c6c56616c75652c60808201527f75696e7432353620626964416d6f756e7429546f6b656e416d6f756e7428616460a08201520152209385519081519561183661182188611128565b9761182e8b51998a610f4a565b808952611128565b97848801601f19809a013682375f5b85518110156118ef576118588187611527565b51908c51918a83018381108b821117610f08576118ea938f918252602990818152683620616d6f756e742960b81b838d8301927f546f6b656e416d6f756e74286164647265737320746f6b656e2c75696e7432358452015220918a60018060a01b03825116910151908251928c84019485528301528c8201528b81526118dd81610f2f565b519020610db8828d611527565b611845565b5090935098949593969198979097855191828981018095519093905f5b8c82821061199557505050506119289203908101835282610f4a565b5190209160018060a01b0380878401511690858401511690828401518881519101209260a06080860151950151958751998a019a8b52878a0152880152608087015260a086015260c085015260e084015260e0835261010083019183831090831117610f08575251902090565b83518752958601958794509092019160010161190c56fea2646970667358221220797322f89790945f9447121f12f2c5f8b9fb27cdcaa77d6df10908917f7348ed64736f6c63430008140033","linkReferences":{}},"methodIdentifiers":{"computeAddress(address)":"4e1d91d8","createAdapter(address)":"acf461f9","executeOpportunity((((address,uint256)[],uint256,uint256),((address,uint256)[],address,address,bytes,uint256,uint256)),bytes)":"2608ba81","getExpressRelay()":"c9b4518a","getOpportunityAdapterCreationCodeHash()":"3e239349","getPermit2()":"1bbf2e23","getWeth()":"107c279f","parameters()":"89035730"},"id":88}