{"abi":[{"type":"receive","stateMutability":"payable"},{"type":"function","name":"addRelayerSubwallet","inputs":[{"name":"subwallet","type":"address","internalType":"address"}],"outputs":[],"stateMutability":"nonpayable"},{"type":"function","name":"callWithBid","inputs":[{"name":"multicallData","type":"tuple","internalType":"struct MulticallData","components":[{"name":"bidId","type":"bytes16","internalType":"bytes16"},{"name":"targetContract","type":"address","internalType":"address"},{"name":"targetCalldata","type":"bytes","internalType":"bytes"},{"name":"bidAmount","type":"uint256","internalType":"uint256"},{"name":"gasLimit","type":"uint256","internalType":"uint256"},{"name":"revertOnFailure","type":"bool","internalType":"bool"}]}],"outputs":[{"name":"","type":"bool","internalType":"bool"},{"name":"","type":"bytes","internalType":"bytes"}],"stateMutability":"payable"},{"type":"function","name":"getAdmin","inputs":[],"outputs":[{"name":"","type":"address","internalType":"address"}],"stateMutability":"view"},{"type":"function","name":"getFeeProtocol","inputs":[{"name":"feeRecipient","type":"address","internalType":"address"}],"outputs":[{"name":"","type":"uint256","internalType":"uint256"}],"stateMutability":"view"},{"type":"function","name":"getFeeProtocolDefault","inputs":[],"outputs":[{"name":"","type":"uint256","internalType":"uint256"}],"stateMutability":"view"},{"type":"function","name":"getFeeRelayer","inputs":[],"outputs":[{"name":"","type":"uint256","internalType":"uint256"}],"stateMutability":"view"},{"type":"function","name":"getFeeSplitPrecision","inputs":[],"outputs":[{"name":"","type":"uint256","internalType":"uint256"}],"stateMutability":"view"},{"type":"function","name":"getRelayer","inputs":[],"outputs":[{"name":"","type":"address","internalType":"address"}],"stateMutability":"view"},{"type":"function","name":"getRelayerSubwallets","inputs":[],"outputs":[{"name":"","type":"address[]","internalType":"address[]"}],"stateMutability":"view"},{"type":"function","name":"isPermissioned","inputs":[{"name":"protocolFeeReceiver","type":"address","internalType":"address"},{"name":"permissionId","type":"bytes","internalType":"bytes"}],"outputs":[{"name":"permissioned","type":"bool","internalType":"bool"}],"stateMutability":"view"},{"type":"function","name":"multicall","inputs":[{"name":"permissionKey","type":"bytes","internalType":"bytes"},{"name":"multicallData","type":"tuple[]","internalType":"struct MulticallData[]","components":[{"name":"bidId","type":"bytes16","internalType":"bytes16"},{"name":"targetContract","type":"address","internalType":"address"},{"name":"targetCalldata","type":"bytes","internalType":"bytes"},{"name":"bidAmount","type":"uint256","internalType":"uint256"},{"name":"gasLimit","type":"uint256","internalType":"uint256"},{"name":"revertOnFailure","type":"bool","internalType":"bool"}]}],"outputs":[{"name":"multicallStatuses","type":"tuple[]","internalType":"struct MulticallStatus[]","components":[{"name":"externalSuccess","type":"bool","internalType":"bool"},{"name":"externalResult","type":"bytes","internalType":"bytes"},{"name":"multicallRevertReason","type":"string","internalType":"string"}]}],"stateMutability":"payable"},{"type":"function","name":"removeRelayerSubwallet","inputs":[{"name":"subwallet","type":"address","internalType":"address"}],"outputs":[],"stateMutability":"nonpayable"},{"type":"function","name":"setFeeProtocol","inputs":[{"name":"feeRecipient","type":"address","internalType":"address"},{"name":"feeSplit","type":"uint256","internalType":"uint256"}],"outputs":[],"stateMutability":"nonpayable"},{"type":"function","name":"setFeeProtocolDefault","inputs":[{"name":"feeSplit","type":"uint256","internalType":"uint256"}],"outputs":[],"stateMutability":"nonpayable"},{"type":"function","name":"setFeeRelayer","inputs":[{"name":"feeSplit","type":"uint256","internalType":"uint256"}],"outputs":[],"stateMutability":"nonpayable"},{"type":"function","name":"setRelayer","inputs":[{"name":"relayer","type":"address","internalType":"address"}],"outputs":[],"stateMutability":"nonpayable"},{"type":"event","name":"FeeProtocolDefaultSet","inputs":[{"name":"feeSplit","type":"uint256","indexed":false,"internalType":"uint256"}],"anonymous":false},{"type":"event","name":"FeeProtocolSet","inputs":[{"name":"feeRecipient","type":"address","indexed":true,"internalType":"address"},{"name":"feeSplit","type":"uint256","indexed":false,"internalType":"uint256"}],"anonymous":false},{"type":"event","name":"FeeRelayerSet","inputs":[{"name":"feeSplit","type":"uint256","indexed":false,"internalType":"uint256"}],"anonymous":false},{"type":"event","name":"MulticallIssued","inputs":[{"name":"permissionKey","type":"bytes","indexed":true,"internalType":"bytes"},{"name":"multicallIndex","type":"uint256","indexed":true,"internalType":"uint256"},{"name":"bidId","type":"bytes16","indexed":true,"internalType":"bytes16"},{"name":"bidAmount","type":"uint256","indexed":false,"internalType":"uint256"},{"name":"multicallStatus","type":"tuple","indexed":false,"internalType":"struct MulticallStatus","components":[{"name":"externalSuccess","type":"bool","internalType":"bool"},{"name":"externalResult","type":"bytes","internalType":"bytes"},{"name":"multicallRevertReason","type":"string","internalType":"string"}]}],"anonymous":false},{"type":"event","name":"ReceivedETH","inputs":[{"name":"sender","type":"address","indexed":true,"internalType":"address"},{"name":"amount","type":"uint256","indexed":false,"internalType":"uint256"}],"anonymous":false},{"type":"event","name":"RelayerSet","inputs":[{"name":"relayer","type":"address","indexed":false,"internalType":"address"}],"anonymous":false},{"type":"event","name":"RelayerSubwalletAdded","inputs":[{"name":"relayer","type":"address","indexed":true,"internalType":"address"},{"name":"subwallet","type":"address","indexed":false,"internalType":"address"}],"anonymous":false},{"type":"event","name":"RelayerSubwalletRemoved","inputs":[{"name":"relayer","type":"address","indexed":true,"internalType":"address"},{"name":"subwallet","type":"address","indexed":false,"internalType":"address"}],"anonymous":false},{"type":"error","name":"DuplicateRelayerSubwallet","inputs":[]},{"type":"error","name":"ExternalCallFailed","inputs":[{"name":"status","type":"tuple","internalType":"struct MulticallStatus","components":[{"name":"externalSuccess","type":"bool","internalType":"bool"},{"name":"externalResult","type":"bytes","internalType":"bytes"},{"name":"multicallRevertReason","type":"string","internalType":"string"}]}]},{"type":"error","name":"InvalidFeeSplit","inputs":[]},{"type":"error","name":"InvalidPermission","inputs":[]},{"type":"error","name":"InvalidTargetContract","inputs":[]},{"type":"error","name":"ReentrancyGuardReentrantCall","inputs":[]},{"type":"error","name":"RelayerSubwalletNotFound","inputs":[]},{"type":"error","name":"Unauthorized","inputs":[]}],"bytecode":{"object":"0x6080806040523461001b57600160085561173e90816100208239f35b5f80fdfe60806040526004361015610022575b3615610018575f80fd5b6100206115af565b005b5f3560e01c80631953ea7414610121578063403e96f61461011c5780634767ea4d1461011757806353383af1146101125780636548e9bc1461010d5780636caad4ec146101085780636e9960c314610103578063717a06f8146100fe5780638e7f00c8146100f9578063929628c2146100f45780639aacc67a146100ef578063b0e6fa47146100ea578063bdc50373146100e5578063be064301146100e0578063e6055ea6146100db5763fd6275bf0361000e576109e6565b6109b0565b610950565b610928565b61090b565b610890565b610736565b610680565b61059a565b610573565b6103ca565b6102f4565b6102d7565b61025c565b6101b7565b61013b565b6001600160a01b0381160361013757565b5f80fd5b346101375760203660031901126101375760043561015881610126565b6001600160a01b03165f908152600260205260409020548015610181575b602090604051908152f35b50600454610176565b9181601f84011215610137578235916001600160401b038311610137576020838186019501011161013757565b346101375760408060031936011261013757600435906101d682610126565b602435916001600160401b038311610137576102336101fc61025894369060040161018a565b6102258593929351938492602084019660018060a01b03168752878085015260608401916111db565b03601f198101835282611024565b5190205f52600360205260ff815f205416905191829182919091602081019215159052565b0390f35b34610137576020366003190112610137575f54600435906001600160a01b031633036102bc576020816102af7fb8a2163434e0d28db18a4672fd3c1c32af5fab38b11dc2354a3c5db51f83d925936116cc565b80600555604051908152a1005b6040516282b42960e81b8152600490fd5b5f91031261013757565b34610137575f366003190112610137576020600654604051908152f35b346101375760203660031901126101375760043561031181610126565b5f80549091906001600160a01b0390811633036102bc5760019082166bffffffffffffffffffffffff60a01b8254161781558260405161035081611009565b52600754836007558061039c575b60075f526040516001600160a01b038416815284907fb7041340e0c2a075059bf0488a71c767724be15dae8e737f8460007325e8d85790602090a180f35b600784525f805160206116e9833981519152908101905b8181106103c0575061035e565b84815582016103b3565b346101375760203660031901126101375760048035906103e982610126565b600180549091906001600160a01b03908116330361056457838116905f845b610471575b845486907f8e33eb399e9ba88b83b800f75bd766a52765bb94d513a72d77f33b7378a4dbde9061046c90610451906001600160a01b03165b6001600160a01b031690565b6040516001600160a01b039094168452929081906020820190565b0390a2005b600780548083101561055d5784846104a061048b86610ae8565b905460039190911b1c6001600160a01b031690565b16146104dc57506104b19054611479565b81146104cb57906104c3859392610ac1565b909192610408565b60405163ac4d92b360e01b81528490fd5b61046c95506104519450610445935061054f91509161053061052a61048b6105257f8e33eb399e9ba88b83b800f75bd766a52765bb94d513a72d77f33b7378a4dbde9a96611479565b610ae8565b91610ae8565b90919082549060031b9160018060a01b03809116831b921b1916179055565b610557611661565b9361040d565b505061040d565b506040516282b42960e81b8152fd5b34610137575f366003190112610137575f546040516001600160a01b039091168152602090f35b3461013757602036600319011261013757600480356105b881610126565b6001546001600160a01b03929083163303610672575f9283600791825492818616925b84811061062e5787876105ed8161160c565b6001547f8cc46934db1c70bf04828455a92a56b18a4b32e2c36b989d22842dee5a02ae889061062890610451906001600160a01b0316610445565b0390a280f35b8188525f805160206116e983398151915281015483166001600160a01b031684146106615761065c90610ac1565b6105db565b60405163b40d37c360e01b81528690fd5b6040516282b42960e81b8152fd5b34610137575f806003193601126107335760405180916007549081835260208093018092600783525f805160206116e983398151915290835b81811061071657505050846106cf910385611024565b60405193838594850191818652518092526040850193925b8281106106f657505050500390f35b83516001600160a01b0316855286955093810193928101926001016106e7565b82546001600160a01b0316845292860192600192830192016106b9565b80fd5b346101375760403660031901126101375760043561075381610126565b5f54602435916001600160a01b0391821633036102bc577f52ad746c8f4c13941233e6b7b2755019a39a992aa3dc7d2bb939c4020b1f573c91602091610798856116cc565b1692835f52600282528060405f2055604051908152a2005b5f5b8381106107c15750505f910152565b81810151838201526020016107b2565b906020916107ea815180928185528580860191016107b0565b601f01601f1916010190565b61082c91815115158152604061081b60208401516060602085015260608401906107d1565b9201519060408184039101526107d1565b90565b602080820190808352835180925260408301928160408460051b8301019501935f915b8483106108625750505050505090565b9091929394958480610880600193603f198682030187528a516107f6565b9801930193019194939290610852565b6040366003190112610137576001600160401b03600435818111610137576108bc90369060040161018a565b91602435918183116101375736602384011215610137578260040135918211610137573660248360051b85010111610137576102589360246108ff940191610b0f565b6040519182918261082f565b34610137575f366003190112610137576020600454604051908152f35b34610137575f366003190112610137576001546040516001600160a01b039091168152602090f35b34610137576020366003190112610137575f54600435906001600160a01b031633036102bc576020816109a37f0a3ed97e63337c869ee1c03d88650119096af2cbc89be5021154b622ed597670936116cc565b80600455604051908152a1005b34610137575f366003190112610137576020600554604051908152f35b60409061082c93921515815281602082015201906107d1565b60031960203682011261013757600435906001600160401b0382116101375760c0908236030112610137573033036102bc576024810130610a29610445836114e0565b14610a9b57610a61610a3b47926114e0565b610a55610a4e60448601866004016114ea565b3691611060565b90608485013590611556565b92819291610a7b575b5050610258604051928392836109cd565b6064610a8a610a949347611487565b910135111561151c565b5f80610a6a565b604051632ab4c28d60e11b8152600490fd5b634e487b7160e01b5f52601160045260245ffd5b5f198114610acf5760010190565b610aad565b634e487b7160e01b5f52603260045260245ffd5b600754811015610b0a5760075f525f805160206116e983398151915201905f90565b610ad4565b6001805490936001600160a01b0392909183163303610f85575b600260085414610f7357600260085560148410610f6157610b4b368583611060565b93610b75610b6886516020809801205f52600360205260405f2090565b805460ff19166001179055565b610b7e876110ad565b965f93845b828110610d3b57505050610ba0610b9b368385611060565b6115dd565b6001600160a01b0381165f908152600260205260409020909490548015610d32575b610bcf610bd891866113bc565b600654906113cf565b9485610c6c575b505091610c1d610c13610c2b96610bff610bcf9795610c22973691611060565b9081519101205f52600360205260405f2090565b805460ff19169055565b611487565b600554906113bc565b80610c3d575b505061082c6001600855565b5f80808093610c55610c65965460018060a01b031690565b5af1610c5f6113ed565b50611494565b5f80610c31565b9194929391803b63ffffffff1615610cfd571693843b15610137575f604051809663fced708160e01b8252818681610ca8878b60048401611468565b03925af1948515610cf857610c2b96610bff610c2296610c1d94610c1394610bcf9a610cdf575b505b959750959750509650610bdf565b80610cec610cf292610ff1565b806102cd565b5f610ccf565b6112b8565b610c1d9150610c2b96610bff610c2296610bcf98610d2d5f8080808c610c139a5af1610d276113ed565b5061141c565b610cd1565b50600454610bc2565b610d46818484611125565b6040908b8a835163fd6275bf60e01b8152855f8280610d69600498898301611208565b038183305af193845f938496610f38575b50610f055750505050508a610d8d6112d7565b6308c379a014610ed6575b610cf857610db7610db3610dac858f6112c3565b5151151590565b1590565b80610eba575b610e9257508a90610dd1610dac84846112c3565b610e5f575b908280927fd56fb0d5bb780b877d5c011d6bc88787167fd6429fc93e9acc40b20dd8e430368987610e52610e3c8c610e358860608f82610e5a9f91610e27610e22610e2d94838d611125565b611387565b99611125565b01359a6112c3565b5194611391565b94519283926001600160801b03191697836113a5565b0390a4610ac1565b610b83565b90828092818987828a9d610e758d9a8d85611125565b60600135610e829161137a565b9d50505050509192509250610dd6565b610eb6610e9f848e6112c3565b5192516372af8c3360e01b81529283928301611369565b0390fd5b50610ed160a0610ecb858888611125565b0161135f565b610dbd565b8c610edf6112f2565b80610eec575b5050610d98565b90915083610efb865f946112c3565b5101528c5f610ee5565b610db794610db394610f26610dac95610f1e86866112c3565b519015159052565b610f3084846112c3565b5101526112c3565b909550610f5791933d8091833e610f4f8183611024565b810190611151565b929092945f610d7a565b604051634345326f60e11b8152600490fd5b604051633ee5aeb560e01b8152600490fd5b5f80600754905b818110610fab575b5050610b29576040516282b42960e81b8152600490fd5b85610fb582610ae8565b919054339260031b1c1614610fd257610fcd90610ac1565b610f8c565b505050845f80610f94565b634e487b7160e01b5f52604160045260245ffd5b6001600160401b03811161100457604052565b610fdd565b602081019081106001600160401b0382111761100457604052565b90601f801991011681019081106001600160401b0382111761100457604052565b6001600160401b03811161100457601f01601f191660200190565b92919261106c82611045565b9161107a6040519384611024565b829481845281830111610137578281602093845f960137010152565b6001600160401b0381116110045760051b60200190565b906110b782611096565b6040906110c682519182611024565b83815280936110d7601f1991611096565b01905f92835b8381106110eb575050505050565b815190606091828101928184106001600160401b0385111761100457602093855287825283908082840152858301528286010152016110dd565b9190811015610b0a5760051b8101359060be1981360301821215610137570190565b8015150361013757565b919060408382031261013757825161116881611147565b926020810151906001600160401b038211610137570181601f8201121561013757805161119481611045565b926111a26040519485611024565b818452602082840101116101375761082c91602080850191016107b0565b6fffffffffffffffffffffffffffffffff1981160361013757565b908060209392818452848401375f828201840152601f01601f1916010190565b359061120682611147565b565b602081528135611217816111c0565b6001600160801b0319166020820152602082013561123481610126565b6001600160a01b031660408281019190915282013536839003601e1901811215610137578201906020823592016001600160401b038311610137578236038113610137576112b160a061129760c09361082c9685606088015260e08701916111db565b9560608101356080860152608081013582860152016111fb565b1515910152565b6040513d5f823e3d90fd5b8051821015610b0a5760209160051b010190565b5f9060033d116112e357565b905060045f803e5f5160e01c90565b5f60443d1061082c57604051600319913d83016004833e81516001600160401b03918282113d60248401111761134e57818401948551938411611356573d8501016020848701011161134e575061082c92910160200190611024565b949350505050565b50949350505050565b3561082c81611147565b90602061082c9281815201906107f6565b91908201809211610acf57565b3561082c816111c0565b81604051928392833781015f815203902090565b60409061082c9392815281602082015201906107f6565b81810292918115918404141715610acf57565b81156113d9570490565b634e487b7160e01b5f52601260045260245ffd5b3d15611417573d906113fe82611045565b9161140c6040519384611024565b82523d5f602084013e565b606090565b1561142357565b60405162461bcd60e51b815260206004820152601f60248201527f466565207472616e7366657220746f2070726f746f636f6c206661696c6564006044820152606490fd5b91602061082c9381815201916111db565b5f19810191908211610acf57565b91908203918211610acf57565b1561149b57565b60405162461bcd60e51b815260206004820152601e60248201527f466565207472616e7366657220746f2072656c61796572206661696c656400006044820152606490fd5b3561082c81610126565b903590601e198136030182121561013757018035906001600160401b0382116101375760200191813603831361013757565b1561152357565b60405162461bcd60e51b815260206004820152600b60248201526a1a5b9d985b1a5908189a5960aa1b6044820152606490fd5b909291925f6040519460408601908682106001600160401b03831117611004578291604052602093848852828589019686368937868451940192f1913d918083116115a7575b505f908286523e9190565b91505f61159c565b6040513481527f4103257eaac983ca79a70d28f90dfc4fa16b619bb0c17ee7cab0d4034c27962460203392a2565b6020815191015190602081106115fb575b506001600160a01b031690565b5f199060200360031b1b165f6115ee565b60075468010000000000000000811015611004576001810180600755811015610b0a5760075f525f805160206116e98339815191520180546001600160a01b0319166001600160a01b03909216919091179055565b60075480156116b8575f1981019080821015610b0a577fa66cc928b5edb82af9bd49922954155ab7b0942694bea4ce44661d9a8736c6879060075f52016bffffffffffffffffffffffff60a01b8154169055600755565b634e487b7160e01b5f52603160045260245ffd5b600654106116d657565b604051630601f69760e01b8152600490fdfea66cc928b5edb82af9bd49922954155ab7b0942694bea4ce44661d9a8736c688a2646970667358221220bb69fd194b3c6e8f231165252ba1d4d347f7401303e88ea2f7b1d256248d015c64736f6c63430008140033","linkReferences":{}},"methodIdentifiers":{"addRelayerSubwallet(address)":"717a06f8","callWithBid((bytes16,address,bytes,uint256,uint256,bool))":"fd6275bf","getAdmin()":"6e9960c3","getFeeProtocol(address)":"1953ea74","getFeeProtocolDefault()":"b0e6fa47","getFeeRelayer()":"e6055ea6","getFeeSplitPrecision()":"53383af1","getRelayer()":"bdc50373","getRelayerSubwallets()":"8e7f00c8","isPermissioned(address,bytes)":"403e96f6","multicall(bytes,(bytes16,address,bytes,uint256,uint256,bool)[])":"9aacc67a","removeRelayerSubwallet(address)":"6caad4ec","setFeeProtocol(address,uint256)":"929628c2","setFeeProtocolDefault(uint256)":"be064301","setFeeRelayer(uint256)":"4767ea4d","setRelayer(address)":"6548e9bc"},"id":78}