{"abi":[{"type":"receive","stateMutability":"payable"},{"type":"function","name":"addRelayerSubwallet","inputs":[{"name":"subwallet","type":"address","internalType":"address"}],"outputs":[],"stateMutability":"nonpayable"},{"type":"function","name":"callWithBid","inputs":[{"name":"multicallData","type":"tuple","internalType":"struct MulticallData","components":[{"name":"bidId","type":"bytes16","internalType":"bytes16"},{"name":"targetContract","type":"address","internalType":"address"},{"name":"targetCalldata","type":"bytes","internalType":"bytes"},{"name":"bidAmount","type":"uint256","internalType":"uint256"},{"name":"gasLimit","type":"uint256","internalType":"uint256"},{"name":"revertOnFailure","type":"bool","internalType":"bool"}]}],"outputs":[{"name":"","type":"bool","internalType":"bool"},{"name":"","type":"bytes","internalType":"bytes"}],"stateMutability":"payable"},{"type":"function","name":"getAdmin","inputs":[],"outputs":[{"name":"","type":"address","internalType":"address"}],"stateMutability":"view"},{"type":"function","name":"getFeeProtocol","inputs":[{"name":"feeRecipient","type":"address","internalType":"address"}],"outputs":[{"name":"","type":"uint256","internalType":"uint256"}],"stateMutability":"view"},{"type":"function","name":"getFeeProtocolDefault","inputs":[],"outputs":[{"name":"","type":"uint256","internalType":"uint256"}],"stateMutability":"view"},{"type":"function","name":"getFeeRelayer","inputs":[],"outputs":[{"name":"","type":"uint256","internalType":"uint256"}],"stateMutability":"view"},{"type":"function","name":"getFeeSplitPrecision","inputs":[],"outputs":[{"name":"","type":"uint256","internalType":"uint256"}],"stateMutability":"view"},{"type":"function","name":"getRelayer","inputs":[],"outputs":[{"name":"","type":"address","internalType":"address"}],"stateMutability":"view"},{"type":"function","name":"getRelayerSubwallets","inputs":[],"outputs":[{"name":"","type":"address[]","internalType":"address[]"}],"stateMutability":"view"},{"type":"function","name":"isPermissioned","inputs":[{"name":"protocolFeeReceiver","type":"address","internalType":"address"},{"name":"permissionId","type":"bytes","internalType":"bytes"}],"outputs":[{"name":"permissioned","type":"bool","internalType":"bool"}],"stateMutability":"view"},{"type":"function","name":"multicall","inputs":[{"name":"permissionKey","type":"bytes","internalType":"bytes"},{"name":"multicallData","type":"tuple[]","internalType":"struct MulticallData[]","components":[{"name":"bidId","type":"bytes16","internalType":"bytes16"},{"name":"targetContract","type":"address","internalType":"address"},{"name":"targetCalldata","type":"bytes","internalType":"bytes"},{"name":"bidAmount","type":"uint256","internalType":"uint256"},{"name":"gasLimit","type":"uint256","internalType":"uint256"},{"name":"revertOnFailure","type":"bool","internalType":"bool"}]}],"outputs":[{"name":"multicallStatuses","type":"tuple[]","internalType":"struct MulticallStatus[]","components":[{"name":"externalSuccess","type":"bool","internalType":"bool"},{"name":"externalResult","type":"bytes","internalType":"bytes"},{"name":"multicallRevertReason","type":"string","internalType":"string"}]}],"stateMutability":"payable"},{"type":"function","name":"removeRelayerSubwallet","inputs":[{"name":"subwallet","type":"address","internalType":"address"}],"outputs":[],"stateMutability":"nonpayable"},{"type":"function","name":"setFeeProtocol","inputs":[{"name":"feeRecipient","type":"address","internalType":"address"},{"name":"feeSplit","type":"uint256","internalType":"uint256"}],"outputs":[],"stateMutability":"nonpayable"},{"type":"function","name":"setFeeProtocolDefault","inputs":[{"name":"feeSplit","type":"uint256","internalType":"uint256"}],"outputs":[],"stateMutability":"nonpayable"},{"type":"function","name":"setFeeRelayer","inputs":[{"name":"feeSplit","type":"uint256","internalType":"uint256"}],"outputs":[],"stateMutability":"nonpayable"},{"type":"function","name":"setRelayer","inputs":[{"name":"relayer","type":"address","internalType":"address"}],"outputs":[],"stateMutability":"nonpayable"},{"type":"event","name":"FeeProtocolDefaultSet","inputs":[{"name":"feeSplit","type":"uint256","indexed":false,"internalType":"uint256"}],"anonymous":false},{"type":"event","name":"FeeProtocolSet","inputs":[{"name":"feeRecipient","type":"address","indexed":true,"internalType":"address"},{"name":"feeSplit","type":"uint256","indexed":false,"internalType":"uint256"}],"anonymous":false},{"type":"event","name":"FeeRelayerSet","inputs":[{"name":"feeSplit","type":"uint256","indexed":false,"internalType":"uint256"}],"anonymous":false},{"type":"event","name":"MulticallIssued","inputs":[{"name":"permissionKey","type":"bytes","indexed":true,"internalType":"bytes"},{"name":"multicallIndex","type":"uint256","indexed":true,"internalType":"uint256"},{"name":"bidId","type":"bytes16","indexed":true,"internalType":"bytes16"},{"name":"bidAmount","type":"uint256","indexed":false,"internalType":"uint256"},{"name":"multicallStatus","type":"tuple","indexed":false,"internalType":"struct MulticallStatus","components":[{"name":"externalSuccess","type":"bool","internalType":"bool"},{"name":"externalResult","type":"bytes","internalType":"bytes"},{"name":"multicallRevertReason","type":"string","internalType":"string"}]}],"anonymous":false},{"type":"event","name":"ReceivedETH","inputs":[{"name":"sender","type":"address","indexed":true,"internalType":"address"},{"name":"amount","type":"uint256","indexed":false,"internalType":"uint256"}],"anonymous":false},{"type":"event","name":"RelayerSet","inputs":[{"name":"relayer","type":"address","indexed":false,"internalType":"address"}],"anonymous":false},{"type":"event","name":"RelayerSubwalletAdded","inputs":[{"name":"relayer","type":"address","indexed":true,"internalType":"address"},{"name":"subwallet","type":"address","indexed":false,"internalType":"address"}],"anonymous":false},{"type":"event","name":"RelayerSubwalletRemoved","inputs":[{"name":"relayer","type":"address","indexed":true,"internalType":"address"},{"name":"subwallet","type":"address","indexed":false,"internalType":"address"}],"anonymous":false},{"type":"error","name":"DuplicateRelayerSubwallet","inputs":[]},{"type":"error","name":"ExternalCallFailed","inputs":[{"name":"status","type":"tuple","internalType":"struct MulticallStatus","components":[{"name":"externalSuccess","type":"bool","internalType":"bool"},{"name":"externalResult","type":"bytes","internalType":"bytes"},{"name":"multicallRevertReason","type":"string","internalType":"string"}]}]},{"type":"error","name":"InvalidFeeSplit","inputs":[]},{"type":"error","name":"InvalidPermission","inputs":[]},{"type":"error","name":"InvalidTargetContract","inputs":[]},{"type":"error","name":"ReentrancyGuardReentrantCall","inputs":[]},{"type":"error","name":"RelayerSubwalletNotFound","inputs":[]},{"type":"error","name":"Unauthorized","inputs":[]}],"bytecode":{"object":"0x6080806040523461001b57600160085561178990816100218239f35b600080fdfe60806040526004361015610023575b361561001957600080fd5b6100216115f3565b005b60003560e01c80631953ea7414610123578063403e96f61461011e5780634767ea4d1461011957806353383af1146101145780636548e9bc1461010f5780636caad4ec1461010a5780636e9960c314610105578063717a06f8146101005780638e7f00c8146100fb578063929628c2146100f65780639aacc67a146100f1578063b0e6fa47146100ec578063bdc50373146100e7578063be064301146100e2578063e6055ea6146100dd5763fd6275bf0361000e57610a03565b6109cc565b61096b565b610942565b610924565b6108a9565b610749565b610691565b6105a9565b610580565b6103d6565b6102fd565b6102df565b610262565b6101bb565b61013e565b6001600160a01b0381160361013957565b600080fd5b346101395760203660031901126101395760043561015b81610128565b6001600160a01b03166000908152600260205260409020548015610185575b602090604051908152f35b5060045461017a565b9181601f84011215610139578235916001600160401b038311610139576020838186019501011161013957565b346101395760408060031936011261013957600435906101da82610128565b602435916001600160401b0383116101395761023761020061025e94369060040161018e565b6102298593929351938492602084019660018060a01b0316875287808501526060840191611211565b03601f198101835282611058565b519020600052600360205260ff816000205416905191829182919091602081019215159052565b0390f35b3461013957602036600319011261013957600054600435906001600160a01b031633036102c3576020816102b67fb8a2163434e0d28db18a4672fd3c1c32af5fab38b11dc2354a3c5db51f83d92593611717565b80600555604051908152a1005b6040516282b42960e81b8152600490fd5b600091031261013957565b34610139576000366003190112610139576020600654604051908152f35b346101395760203660031901126101395760043561031a81610128565b600080549091906001600160a01b0390811633036102c35760019082166bffffffffffffffffffffffff60a01b8254161781558260405161035a8161103d565b5260075483600755806103a7575b60076000526040516001600160a01b038416815284907fb7041340e0c2a075059bf0488a71c767724be15dae8e737f8460007325e8d85790602090a180f35b60078452600080516020611734833981519152908101905b8181106103cc5750610368565b84815582016103bf565b346101395760203660031901126101395760048035906103f582610128565b600180549091906001600160a01b03908116330361057157838116906000845b61047e575b845486907f8e33eb399e9ba88b83b800f75bd766a52765bb94d513a72d77f33b7378a4dbde906104799061045e906001600160a01b03165b6001600160a01b031690565b6040516001600160a01b039094168452929081906020820190565b0390a2005b600780548083101561056a5784846104ad61049886610b0a565b905460039190911b1c6001600160a01b031690565b16146104e957506104be90546114b9565b81146104d857906104d0859392610ae0565b909192610415565b60405163ac4d92b360e01b81528490fd5b610479955061045e9450610452935061055c91509161053d6105376104986105327f8e33eb399e9ba88b83b800f75bd766a52765bb94d513a72d77f33b7378a4dbde9a966114b9565b610b0a565b91610b0a565b90919082549060031b9160018060a01b03809116831b921b1916179055565b6105646116a8565b9361041a565b505061041a565b506040516282b42960e81b8152fd5b34610139576000366003190112610139576000546040516001600160a01b039091168152602090f35b3461013957602036600319011261013957600480356105c781610128565b6001546001600160a01b039290831633036106835760009283600791825492818616925b84811061063e5787876105fd81611651565b6001547f8cc46934db1c70bf04828455a92a56b18a4b32e2c36b989d22842dee5a02ae88906106389061045e906001600160a01b0316610452565b0390a280f35b81885260008051602061173483398151915281015483166001600160a01b031684146106725761066d90610ae0565b6105eb565b60405163b40d37c360e01b81528690fd5b6040516282b42960e81b8152fd5b346101395760008060031936011261074657604051809160075490818352602080930180926007835260008051602061173483398151915290835b81811061072957505050846106e2910385611058565b60405193838594850191818652518092526040850193925b82811061070957505050500390f35b83516001600160a01b0316855286955093810193928101926001016106fa565b82546001600160a01b0316845292860192600192830192016106cc565b80fd5b346101395760403660031901126101395760043561076681610128565b600054602435916001600160a01b0391821633036102c3577f52ad746c8f4c13941233e6b7b2755019a39a992aa3dc7d2bb939c4020b1f573c916020916107ac85611717565b1692836000526002825280604060002055604051908152a2005b60005b8381106107d95750506000910152565b81810151838201526020016107c9565b90602091610802815180928185528580860191016107c6565b601f01601f1916010190565b61084491815115158152604061083360208401516060602085015260608401906107e9565b9201519060408184039101526107e9565b90565b602080820190808352835180925260408301928160408460051b8301019501936000915b84831061087b5750505050505090565b9091929394958480610899600193603f198682030187528a5161080e565b980193019301919493929061086b565b6040366003190112610139576001600160401b03600435818111610139576108d590369060040161018e565b91602435918183116101395736602384011215610139578260040135918211610139573660248360051b850101116101395761025e936024610918940191610b34565b60405191829182610847565b34610139576000366003190112610139576020600454604051908152f35b34610139576000366003190112610139576001546040516001600160a01b039091168152602090f35b3461013957602036600319011261013957600054600435906001600160a01b031633036102c3576020816109bf7f0a3ed97e63337c869ee1c03d88650119096af2cbc89be5021154b622ed59767093611717565b80600455604051908152a1005b34610139576000366003190112610139576020600554604051908152f35b60409061084493921515815281602082015201906107e9565b60031960203682011261013957600435906001600160401b0382116101395760c0908236030112610139573033036102c3576024810130610a4661045283611521565b14610ab857610a7e610a584792611521565b610a72610a6b604486018660040161152b565b3691611094565b90608485013590611597565b92819291610a98575b505061025e604051928392836109ea565b6064610aa7610ab193476114c8565b910135111561155d565b3880610a87565b604051632ab4c28d60e11b8152600490fd5b634e487b7160e01b600052601160045260246000fd5b6000198114610aef5760010190565b610aca565b634e487b7160e01b600052603260045260246000fd5b600754811015610b2f5760076000526000805160206117348339815191520190600090565b610af4565b6001805490936001600160a01b0392909183163303610fb6575b600260085414610fa457600260085560148410610f9257610b70368583611094565b93610b9c610b8f86516020809801206000526003602052604060002090565b805460ff19166001179055565b610ba5876110e2565b96600093845b828110610d6957505050610bc8610bc3368385611094565b611621565b6001600160a01b0381166000908152600260205260409020909490548015610d60575b610bf8610c0191866113f9565b6006549061140c565b9485610c98575b505091610c48610c3e610c5696610c28610bf89795610c4d973691611094565b9081519101206000526003602052604060002090565b805460ff19169055565b6114c8565b600554906113f9565b80610c68575b50506108446001600855565b600080808093610c81610c91965460018060a01b031690565b5af1610c8b61142c565b506114d5565b3880610c5c565b9194929391803b63ffffffff1615610d2a571693843b15610139576000604051809663fced708160e01b8252818681610cd5878b600484016114a8565b03925af1948515610d2557610c5696610c28610c4d96610c4894610c3e94610bf89a610d0c575b505b959750959750509650610c08565b80610d19610d1f92611025565b806102d4565b38610cfc565b6112ef565b610c489150610c5696610c28610c4d96610bf898610d5b60008080808c610c3e9a5af1610d5561142c565b5061145c565b610cfe565b50600454610beb565b610d7481848461115b565b6040908b8a835163fd6275bf60e01b81528560008280610d9860049889830161123f565b038183305af193846000938496610f69575b50610f365750505050508a610dbd61130f565b6308c379a014610f06575b610d2557610de7610de3610ddc858f6112fb565b5151151590565b1590565b80610eea575b610ec257508a90610e01610ddc84846112fb565b610e8f575b908280927fd56fb0d5bb780b877d5c011d6bc88787167fd6429fc93e9acc40b20dd8e430368987610e82610e6c8c610e658860608f82610e8a9f91610e57610e52610e5d94838d61115b565b6113c3565b9961115b565b01359a6112fb565b51946113cd565b94519283926001600160801b03191697836113e2565b0390a4610ae0565b610bab565b90828092818987828a9d610ea58d9a8d8561115b565b60600135610eb2916113b6565b9d50505050509192509250610e06565b610ee6610ecf848e6112fb565b5192516372af8c3360e01b815292839283016113a5565b0390fd5b50610f0160a0610efb85888861115b565b0161139b565b610ded565b8c610f0f61132d565b80610f1c575b5050610dc8565b90915083610f2c866000946112fb565b5101528c38610f15565b610de794610de394610f57610ddc95610f4f86866112fb565b519015159052565b610f6184846112fb565b5101526112fb565b909550610f8891933d8091833e610f808183611058565b810190611187565b9290929438610daa565b604051634345326f60e11b8152600490fd5b604051633ee5aeb560e01b8152600490fd5b600080600754905b818110610fdd575b5050610b4e576040516282b42960e81b8152600490fd5b85610fe782610b0a565b919054339260031b1c161461100457610fff90610ae0565b610fbe565b505050843880610fc6565b634e487b7160e01b600052604160045260246000fd5b6001600160401b03811161103857604052565b61100f565b602081019081106001600160401b0382111761103857604052565b90601f801991011681019081106001600160401b0382111761103857604052565b6001600160401b03811161103857601f01601f191660200190565b9291926110a082611079565b916110ae6040519384611058565b829481845281830111610139578281602093846000960137010152565b6001600160401b0381116110385760051b60200190565b906110ec826110cb565b6040906110fb82519182611058565b838152809361110c601f19916110cb565b0190600092835b838110611121575050505050565b815190606091828101928184106001600160401b038511176110385760209385528782528390808284015285830152828601015201611113565b9190811015610b2f5760051b8101359060be1981360301821215610139570190565b8015150361013957565b919060408382031261013957825161119e8161117d565b926020810151906001600160401b038211610139570181601f820112156101395780516111ca81611079565b926111d86040519485611058565b818452602082840101116101395761084491602080850191016107c6565b6fffffffffffffffffffffffffffffffff1981160361013957565b908060209392818452848401376000828201840152601f01601f1916010190565b359061123d8261117d565b565b60208152813561124e816111f6565b6001600160801b0319166020820152602082013561126b81610128565b6001600160a01b031660408281019190915282013536839003601e1901811215610139578201906020823592016001600160401b038311610139578236038113610139576112e860a06112ce60c0936108449685606088015260e0870191611211565b956060810135608086015260808101358286015201611232565b1515910152565b6040513d6000823e3d90fd5b8051821015610b2f5760209160051b010190565b60009060033d1161131c57565b905060046000803e60005160e01c90565b600060443d1061084457604051600319913d83016004833e81516001600160401b03918282113d60248401111761138a57818401948551938411611392573d8501016020848701011161138a575061084492910160200190611058565b949350505050565b50949350505050565b356108448161117d565b90602061084492818152019061080e565b91908201809211610aef57565b35610844816111f6565b81604051928392833781016000815203902090565b60409061084493928152816020820152019061080e565b81810292918115918404141715610aef57565b8115611416570490565b634e487b7160e01b600052601260045260246000fd5b3d15611457573d9061143d82611079565b9161144b6040519384611058565b82523d6000602084013e565b606090565b1561146357565b60405162461bcd60e51b815260206004820152601f60248201527f466565207472616e7366657220746f2070726f746f636f6c206661696c6564006044820152606490fd5b916020610844938181520191611211565b600019810191908211610aef57565b91908203918211610aef57565b156114dc57565b60405162461bcd60e51b815260206004820152601e60248201527f466565207472616e7366657220746f2072656c61796572206661696c656400006044820152606490fd5b3561084481610128565b903590601e198136030182121561013957018035906001600160401b0382116101395760200191813603831361013957565b1561156457565b60405162461bcd60e51b815260206004820152600b60248201526a1a5b9d985b1a5908189a5960aa1b6044820152606490fd5b9092919260006040519460408601908682106001600160401b03831117611038578291604052602093848852828589019686368937868451940192f1913d918083116115ea575b506000908286523e9190565b915060006115de565b6040513481527f4103257eaac983ca79a70d28f90dfc4fa16b619bb0c17ee7cab0d4034c27962460203392a2565b60208151910151906020811061163f575b506001600160a01b031690565b6000199060200360031b1b1638611632565b60075468010000000000000000811015611038576001810180600755811015610b2f5760076000526000805160206117348339815191520180546001600160a01b0319166001600160a01b03909216919091179055565b60075480156117015760001981019080821015610b2f577fa66cc928b5edb82af9bd49922954155ab7b0942694bea4ce44661d9a8736c687906007600052016bffffffffffffffffffffffff60a01b8154169055600755565b634e487b7160e01b600052603160045260246000fd5b6006541061172157565b604051630601f69760e01b8152600490fdfea66cc928b5edb82af9bd49922954155ab7b0942694bea4ce44661d9a8736c688a2646970667358221220fe8e4a65d17fbfcebe0eddf82879bfd5b62b7127f0fc727bf0f2a2ae1b485ee664736f6c63430008140033","linkReferences":{}},"methodIdentifiers":{"addRelayerSubwallet(address)":"717a06f8","callWithBid((bytes16,address,bytes,uint256,uint256,bool))":"fd6275bf","getAdmin()":"6e9960c3","getFeeProtocol(address)":"1953ea74","getFeeProtocolDefault()":"b0e6fa47","getFeeRelayer()":"e6055ea6","getFeeSplitPrecision()":"53383af1","getRelayer()":"bdc50373","getRelayerSubwallets()":"8e7f00c8","isPermissioned(address,bytes)":"403e96f6","multicall(bytes,(bytes16,address,bytes,uint256,uint256,bool)[])":"9aacc67a","removeRelayerSubwallet(address)":"6caad4ec","setFeeProtocol(address,uint256)":"929628c2","setFeeProtocolDefault(uint256)":"be064301","setFeeRelayer(uint256)":"4767ea4d","setRelayer(address)":"6548e9bc"},"id":78}